{
  "_format": "hh-sol-artifact-1",
  "contractName": "ImageToken",
  "sourceName": "contracts/ImageNFT.sol",
  "abi": [
    {
      "inputs": [],
      "stateMutability": "nonpayable",
      "type": "constructor"
    },
    {
      "anonymous": false,
      "inputs": [
        {
          "indexed": false,
          "internalType": "address",
          "name": "previousAdmin",
          "type": "address"
        },
        {
          "indexed": false,
          "internalType": "address",
          "name": "newAdmin",
          "type": "address"
        }
      ],
      "name": "AdminChanged",
      "type": "event"
    },
    {
      "anonymous": false,
      "inputs": [
        {
          "indexed": true,
          "internalType": "address",
          "name": "owner",
          "type": "address"
        },
        {
          "indexed": true,
          "internalType": "address",
          "name": "approved",
          "type": "address"
        },
        {
          "indexed": true,
          "internalType": "uint256",
          "name": "tokenId",
          "type": "uint256"
        }
      ],
      "name": "Approval",
      "type": "event"
    },
    {
      "anonymous": false,
      "inputs": [
        {
          "indexed": true,
          "internalType": "address",
          "name": "owner",
          "type": "address"
        },
        {
          "indexed": true,
          "internalType": "address",
          "name": "operator",
          "type": "address"
        },
        {
          "indexed": false,
          "internalType": "bool",
          "name": "approved",
          "type": "bool"
        }
      ],
      "name": "ApprovalForAll",
      "type": "event"
    },
    {
      "anonymous": false,
      "inputs": [
        {
          "indexed": true,
          "internalType": "address",
          "name": "beacon",
          "type": "address"
        }
      ],
      "name": "BeaconUpgraded",
      "type": "event"
    },
    {
      "anonymous": false,
      "inputs": [
        {
          "indexed": false,
          "internalType": "uint8",
          "name": "version",
          "type": "uint8"
        }
      ],
      "name": "Initialized",
      "type": "event"
    },
    {
      "anonymous": false,
      "inputs": [
        {
          "indexed": false,
          "internalType": "address",
          "name": "account",
          "type": "address"
        }
      ],
      "name": "Paused",
      "type": "event"
    },
    {
      "anonymous": false,
      "inputs": [
        {
          "indexed": true,
          "internalType": "bytes32",
          "name": "role",
          "type": "bytes32"
        },
        {
          "indexed": true,
          "internalType": "bytes32",
          "name": "previousAdminRole",
          "type": "bytes32"
        },
        {
          "indexed": true,
          "internalType": "bytes32",
          "name": "newAdminRole",
          "type": "bytes32"
        }
      ],
      "name": "RoleAdminChanged",
      "type": "event"
    },
    {
      "anonymous": false,
      "inputs": [
        {
          "indexed": true,
          "internalType": "bytes32",
          "name": "role",
          "type": "bytes32"
        },
        {
          "indexed": true,
          "internalType": "address",
          "name": "account",
          "type": "address"
        },
        {
          "indexed": true,
          "internalType": "address",
          "name": "sender",
          "type": "address"
        }
      ],
      "name": "RoleGranted",
      "type": "event"
    },
    {
      "anonymous": false,
      "inputs": [
        {
          "indexed": true,
          "internalType": "bytes32",
          "name": "role",
          "type": "bytes32"
        },
        {
          "indexed": true,
          "internalType": "address",
          "name": "account",
          "type": "address"
        },
        {
          "indexed": true,
          "internalType": "address",
          "name": "sender",
          "type": "address"
        }
      ],
      "name": "RoleRevoked",
      "type": "event"
    },
    {
      "anonymous": false,
      "inputs": [
        {
          "indexed": true,
          "internalType": "address",
          "name": "from",
          "type": "address"
        },
        {
          "indexed": true,
          "internalType": "address",
          "name": "to",
          "type": "address"
        },
        {
          "indexed": true,
          "internalType": "uint256",
          "name": "tokenId",
          "type": "uint256"
        }
      ],
      "name": "Transfer",
      "type": "event"
    },
    {
      "anonymous": false,
      "inputs": [
        {
          "indexed": false,
          "internalType": "address",
          "name": "account",
          "type": "address"
        }
      ],
      "name": "Unpaused",
      "type": "event"
    },
    {
      "anonymous": false,
      "inputs": [
        {
          "indexed": true,
          "internalType": "address",
          "name": "implementation",
          "type": "address"
        }
      ],
      "name": "Upgraded",
      "type": "event"
    },
    {
      "inputs": [],
      "name": "DEFAULT_ADMIN_ROLE",
      "outputs": [
        {
          "internalType": "bytes32",
          "name": "",
          "type": "bytes32"
        }
      ],
      "stateMutability": "view",
      "type": "function"
    },
    {
      "inputs": [],
      "name": "MINTER_ROLE",
      "outputs": [
        {
          "internalType": "bytes32",
          "name": "",
          "type": "bytes32"
        }
      ],
      "stateMutability": "view",
      "type": "function"
    },
    {
      "inputs": [],
      "name": "PAUSER_ROLE",
      "outputs": [
        {
          "internalType": "bytes32",
          "name": "",
          "type": "bytes32"
        }
      ],
      "stateMutability": "view",
      "type": "function"
    },
    {
      "inputs": [],
      "name": "UPGRADER_ROLE",
      "outputs": [
        {
          "internalType": "bytes32",
          "name": "",
          "type": "bytes32"
        }
      ],
      "stateMutability": "view",
      "type": "function"
    },
    {
      "inputs": [
        {
          "internalType": "address",
          "name": "to",
          "type": "address"
        },
        {
          "internalType": "uint256",
          "name": "tokenId",
          "type": "uint256"
        }
      ],
      "name": "approve",
      "outputs": [],
      "stateMutability": "nonpayable",
      "type": "function"
    },
    {
      "inputs": [
        {
          "internalType": "address",
          "name": "owner",
          "type": "address"
        }
      ],
      "name": "balanceOf",
      "outputs": [
        {
          "internalType": "uint256",
          "name": "",
          "type": "uint256"
        }
      ],
      "stateMutability": "view",
      "type": "function"
    },
    {
      "inputs": [
        {
          "internalType": "uint256",
          "name": "tokenId",
          "type": "uint256"
        }
      ],
      "name": "burn",
      "outputs": [],
      "stateMutability": "nonpayable",
      "type": "function"
    },
    {
      "inputs": [
        {
          "internalType": "uint256",
          "name": "tokenId",
          "type": "uint256"
        }
      ],
      "name": "getApproved",
      "outputs": [
        {
          "internalType": "address",
          "name": "",
          "type": "address"
        }
      ],
      "stateMutability": "view",
      "type": "function"
    },
    {
      "inputs": [
        {
          "internalType": "bytes32",
          "name": "role",
          "type": "bytes32"
        }
      ],
      "name": "getRoleAdmin",
      "outputs": [
        {
          "internalType": "bytes32",
          "name": "",
          "type": "bytes32"
        }
      ],
      "stateMutability": "view",
      "type": "function"
    },
    {
      "inputs": [
        {
          "internalType": "bytes32",
          "name": "role",
          "type": "bytes32"
        },
        {
          "internalType": "address",
          "name": "account",
          "type": "address"
        }
      ],
      "name": "grantRole",
      "outputs": [],
      "stateMutability": "nonpayable",
      "type": "function"
    },
    {
      "inputs": [
        {
          "internalType": "bytes32",
          "name": "role",
          "type": "bytes32"
        },
        {
          "internalType": "address",
          "name": "account",
          "type": "address"
        }
      ],
      "name": "hasRole",
      "outputs": [
        {
          "internalType": "bool",
          "name": "",
          "type": "bool"
        }
      ],
      "stateMutability": "view",
      "type": "function"
    },
    {
      "inputs": [],
      "name": "initialize",
      "outputs": [],
      "stateMutability": "nonpayable",
      "type": "function"
    },
    {
      "inputs": [
        {
          "internalType": "address",
          "name": "owner",
          "type": "address"
        },
        {
          "internalType": "address",
          "name": "operator",
          "type": "address"
        }
      ],
      "name": "isApprovedForAll",
      "outputs": [
        {
          "internalType": "bool",
          "name": "",
          "type": "bool"
        }
      ],
      "stateMutability": "view",
      "type": "function"
    },
    {
      "inputs": [],
      "name": "name",
      "outputs": [
        {
          "internalType": "string",
          "name": "",
          "type": "string"
        }
      ],
      "stateMutability": "view",
      "type": "function"
    },
    {
      "inputs": [
        {
          "internalType": "uint256",
          "name": "tokenId",
          "type": "uint256"
        }
      ],
      "name": "ownerOf",
      "outputs": [
        {
          "internalType": "address",
          "name": "",
          "type": "address"
        }
      ],
      "stateMutability": "view",
      "type": "function"
    },
    {
      "inputs": [],
      "name": "pause",
      "outputs": [],
      "stateMutability": "nonpayable",
      "type": "function"
    },
    {
      "inputs": [],
      "name": "paused",
      "outputs": [
        {
          "internalType": "bool",
          "name": "",
          "type": "bool"
        }
      ],
      "stateMutability": "view",
      "type": "function"
    },
    {
      "inputs": [],
      "name": "proxiableUUID",
      "outputs": [
        {
          "internalType": "bytes32",
          "name": "",
          "type": "bytes32"
        }
      ],
      "stateMutability": "view",
      "type": "function"
    },
    {
      "inputs": [
        {
          "internalType": "bytes32",
          "name": "role",
          "type": "bytes32"
        },
        {
          "internalType": "address",
          "name": "account",
          "type": "address"
        }
      ],
      "name": "renounceRole",
      "outputs": [],
      "stateMutability": "nonpayable",
      "type": "function"
    },
    {
      "inputs": [
        {
          "internalType": "bytes32",
          "name": "role",
          "type": "bytes32"
        },
        {
          "internalType": "address",
          "name": "account",
          "type": "address"
        }
      ],
      "name": "revokeRole",
      "outputs": [],
      "stateMutability": "nonpayable",
      "type": "function"
    },
    {
      "inputs": [
        {
          "internalType": "address",
          "name": "to",
          "type": "address"
        },
        {
          "internalType": "string",
          "name": "uri",
          "type": "string"
        }
      ],
      "name": "safeMint",
      "outputs": [],
      "stateMutability": "nonpayable",
      "type": "function"
    },
    {
      "inputs": [
        {
          "internalType": "address",
          "name": "from",
          "type": "address"
        },
        {
          "internalType": "address",
          "name": "to",
          "type": "address"
        },
        {
          "internalType": "uint256",
          "name": "tokenId",
          "type": "uint256"
        }
      ],
      "name": "safeTransferFrom",
      "outputs": [],
      "stateMutability": "nonpayable",
      "type": "function"
    },
    {
      "inputs": [
        {
          "internalType": "address",
          "name": "from",
          "type": "address"
        },
        {
          "internalType": "address",
          "name": "to",
          "type": "address"
        },
        {
          "internalType": "uint256",
          "name": "tokenId",
          "type": "uint256"
        },
        {
          "internalType": "bytes",
          "name": "data",
          "type": "bytes"
        }
      ],
      "name": "safeTransferFrom",
      "outputs": [],
      "stateMutability": "nonpayable",
      "type": "function"
    },
    {
      "inputs": [
        {
          "internalType": "address",
          "name": "operator",
          "type": "address"
        },
        {
          "internalType": "bool",
          "name": "approved",
          "type": "bool"
        }
      ],
      "name": "setApprovalForAll",
      "outputs": [],
      "stateMutability": "nonpayable",
      "type": "function"
    },
    {
      "inputs": [
        {
          "internalType": "bytes4",
          "name": "interfaceId",
          "type": "bytes4"
        }
      ],
      "name": "supportsInterface",
      "outputs": [
        {
          "internalType": "bool",
          "name": "",
          "type": "bool"
        }
      ],
      "stateMutability": "view",
      "type": "function"
    },
    {
      "inputs": [],
      "name": "symbol",
      "outputs": [
        {
          "internalType": "string",
          "name": "",
          "type": "string"
        }
      ],
      "stateMutability": "view",
      "type": "function"
    },
    {
      "inputs": [
        {
          "internalType": "uint256",
          "name": "index",
          "type": "uint256"
        }
      ],
      "name": "tokenByIndex",
      "outputs": [
        {
          "internalType": "uint256",
          "name": "",
          "type": "uint256"
        }
      ],
      "stateMutability": "view",
      "type": "function"
    },
    {
      "inputs": [
        {
          "internalType": "address",
          "name": "owner",
          "type": "address"
        },
        {
          "internalType": "uint256",
          "name": "index",
          "type": "uint256"
        }
      ],
      "name": "tokenOfOwnerByIndex",
      "outputs": [
        {
          "internalType": "uint256",
          "name": "",
          "type": "uint256"
        }
      ],
      "stateMutability": "view",
      "type": "function"
    },
    {
      "inputs": [
        {
          "internalType": "uint256",
          "name": "tokenId",
          "type": "uint256"
        }
      ],
      "name": "tokenURI",
      "outputs": [
        {
          "internalType": "string",
          "name": "",
          "type": "string"
        }
      ],
      "stateMutability": "view",
      "type": "function"
    },
    {
      "inputs": [],
      "name": "totalSupply",
      "outputs": [
        {
          "internalType": "uint256",
          "name": "",
          "type": "uint256"
        }
      ],
      "stateMutability": "view",
      "type": "function"
    },
    {
      "inputs": [
        {
          "internalType": "address",
          "name": "from",
          "type": "address"
        },
        {
          "internalType": "address",
          "name": "to",
          "type": "address"
        },
        {
          "internalType": "uint256",
          "name": "tokenId",
          "type": "uint256"
        }
      ],
      "name": "transferFrom",
      "outputs": [],
      "stateMutability": "nonpayable",
      "type": "function"
    },
    {
      "inputs": [],
      "name": "unpause",
      "outputs": [],
      "stateMutability": "nonpayable",
      "type": "function"
    },
    {
      "inputs": [
        {
          "internalType": "address",
          "name": "newImplementation",
          "type": "address"
        }
      ],
      "name": "upgradeTo",
      "outputs": [],
      "stateMutability": "nonpayable",
      "type": "function"
    },
    {
      "inputs": [
        {
          "internalType": "address",
          "name": "newImplementation",
          "type": "address"
        },
        {
          "internalType": "bytes",
          "name": "data",
          "type": "bytes"
        }
      ],
      "name": "upgradeToAndCall",
      "outputs": [],
      "stateMutability": "payable",
      "type": "function"
    }
  ],
  "bytecode": "0x60a06040523073ffffffffffffffffffffffffffffffffffffffff1660809073ffffffffffffffffffffffffffffffffffffffff168152503480156200004457600080fd5b50620000556200005b60201b60201c565b62000206565b600060019054906101000a900460ff1615620000ae576040517f08c379a0000000000000000000000000000000000000000000000000000000008152600401620000a590620001a9565b60405180910390fd5b60ff801660008054906101000a900460ff1660ff161015620001205760ff6000806101000a81548160ff021916908360ff1602179055507f7f26b83ff96e1f2b6a682f133852f6798a09c465da95921460cefb384740249860ff604051620001179190620001e9565b60405180910390a15b565b600082825260208201905092915050565b7f496e697469616c697a61626c653a20636f6e747261637420697320696e69746960008201527f616c697a696e6700000000000000000000000000000000000000000000000000602082015250565b60006200019160278362000122565b91506200019e8262000133565b604082019050919050565b60006020820190508181036000830152620001c48162000182565b9050919050565b600060ff82169050919050565b620001e381620001cb565b82525050565b6000602082019050620002006000830184620001d8565b92915050565b608051615d516200023e60003960008181610be101528181610c6f01528181610e1a01528181610ea80152610fc90152615d516000f3fe6080604052600436106101f95760003560e01c80635c975abb1161010d578063a22cb465116100a0578063d53913931161006f578063d539139314610720578063d547741f1461074b578063e63ab1e914610774578063e985e9c51461079f578063f72c0d8b146107dc576101f9565b8063a22cb46514610668578063b88d4fde14610691578063c87b56dd146106ba578063d204c45e146106f7576101f9565b80638456cb59116100dc5780638456cb59146105be57806391d14854146105d557806395d89b4114610612578063a217fddf1461063d576101f9565b80635c975abb146105025780636352211e1461052d57806370a082311461056a5780638129fc1c146105a7576101f9565b80632f745c591161019057806342842e0e1161015f57806342842e0e1461042c57806342966c68146104555780634f1ef2861461047e5780634f6ccce71461049a57806352d1902d146104d7576101f9565b80632f745c591461038657806336568abe146103c35780633659cfe6146103ec5780633f4ba83a14610415576101f9565b806318160ddd116101cc57806318160ddd146102cc57806323b872dd146102f7578063248a9ca3146103205780632f2ff15d1461035d576101f9565b806301ffc9a7146101fe57806306fdde031461023b578063081812fc14610266578063095ea7b3146102a3575b600080fd5b34801561020a57600080fd5b5061022560048036038101906102209190613f18565b610807565b6040516102329190613f60565b60405180910390f35b34801561024757600080fd5b50610250610819565b60405161025d919061400b565b60405180910390f35b34801561027257600080fd5b5061028d60048036038101906102889190614063565b6108ab565b60405161029a91906140d1565b60405180910390f35b3480156102af57600080fd5b506102ca60048036038101906102c59190614118565b6108f1565b005b3480156102d857600080fd5b506102e1610a08565b6040516102ee9190614167565b60405180910390f35b34801561030357600080fd5b5061031e60048036038101906103199190614182565b610a15565b005b34801561032c57600080fd5b506103476004803603810190610342919061420b565b610a75565b6040516103549190614247565b60405180910390f35b34801561036957600080fd5b50610384600480360381019061037f9190614262565b610a96565b005b34801561039257600080fd5b506103ad60048036038101906103a89190614118565b610ab7565b6040516103ba9190614167565b60405180910390f35b3480156103cf57600080fd5b506103ea60048036038101906103e59190614262565b610b5c565b005b3480156103f857600080fd5b50610413600480360381019061040e91906142a2565b610bdf565b005b34801561042157600080fd5b5061042a610d67565b005b34801561043857600080fd5b50610453600480360381019061044e9190614182565b610d9c565b005b34801561046157600080fd5b5061047c60048036038101906104779190614063565b610dbc565b005b61049860048036038101906104939190614404565b610e18565b005b3480156104a657600080fd5b506104c160048036038101906104bc9190614063565b610f54565b6040516104ce9190614167565b60405180910390f35b3480156104e357600080fd5b506104ec610fc5565b6040516104f99190614247565b60405180910390f35b34801561050e57600080fd5b5061051761107e565b6040516105249190613f60565b60405180910390f35b34801561053957600080fd5b50610554600480360381019061054f9190614063565b611095565b60405161056191906140d1565b60405180910390f35b34801561057657600080fd5b50610591600480360381019061058c91906142a2565b61111b565b60405161059e9190614167565b60405180910390f35b3480156105b357600080fd5b506105bc6111d2565b005b3480156105ca57600080fd5b506105d3611437565b005b3480156105e157600080fd5b506105fc60048036038101906105f79190614262565b61146c565b6040516106099190613f60565b60405180910390f35b34801561061e57600080fd5b506106276114d8565b604051610634919061400b565b60405180910390f35b34801561064957600080fd5b5061065261156a565b60405161065f9190614247565b60405180910390f35b34801561067457600080fd5b5061068f600480360381019061068a919061448c565b611571565b005b34801561069d57600080fd5b506106b860048036038101906106b391906144cc565b611587565b005b3480156106c657600080fd5b506106e160048036038101906106dc9190614063565b6115e9565b6040516106ee919061400b565b60405180910390f35b34801561070357600080fd5b5061071e600480360381019061071991906145f0565b6115fb565b005b34801561072c57600080fd5b50610735611659565b6040516107429190614247565b60405180910390f35b34801561075757600080fd5b50610772600480360381019061076d9190614262565b61167d565b005b34801561078057600080fd5b5061078961169e565b6040516107969190614247565b60405180910390f35b3480156107ab57600080fd5b506107c660048036038101906107c1919061464c565b6116c2565b6040516107d39190613f60565b60405180910390f35b3480156107e857600080fd5b506107f1611756565b6040516107fe9190614247565b60405180910390f35b60006108128261177a565b9050919050565b606060658054610828906146bb565b80601f0160208091040260200160405190810160405280929190818152602001828054610854906146bb565b80156108a15780601f10610876576101008083540402835291602001916108a1565b820191906000526020600020905b81548152906001019060200180831161088457829003601f168201915b5050505050905090565b60006108b6826117f4565b6069600083815260200190815260200160002060009054906101000a900473ffffffffffffffffffffffffffffffffffffffff169050919050565b60006108fc82611095565b90508073ffffffffffffffffffffffffffffffffffffffff168373ffffffffffffffffffffffffffffffffffffffff160361096c576040517f08c379a00000000000000000000000000000000000000000000000000000000081526004016109639061475e565b60405180910390fd5b8073ffffffffffffffffffffffffffffffffffffffff1661098b61183f565b73ffffffffffffffffffffffffffffffffffffffff1614806109ba57506109b9816109b461183f565b6116c2565b5b6109f9576040517f08c379a00000000000000000000000000000000000000000000000000000000081526004016109f0906147f0565b60405180910390fd5b610a038383611847565b505050565b6000609980549050905090565b610a26610a2061183f565b82611900565b610a65576040517f08c379a0000000000000000000000000000000000000000000000000000000008152600401610a5c90614882565b60405180910390fd5b610a70838383611995565b505050565b600061012d6000838152602001908152602001600020600101549050919050565b610a9f82610a75565b610aa881611c8e565b610ab28383611ca2565b505050565b6000610ac28361111b565b8210610b03576040517f08c379a0000000000000000000000000000000000000000000000000000000008152600401610afa90614914565b60405180910390fd5b609760008473ffffffffffffffffffffffffffffffffffffffff1673ffffffffffffffffffffffffffffffffffffffff168152602001908152602001600020600083815260200190815260200160002054905092915050565b610b6461183f565b73ffffffffffffffffffffffffffffffffffffffff168173ffffffffffffffffffffffffffffffffffffffff1614610bd1576040517f08c379a0000000000000000000000000000000000000000000000000000000008152600401610bc8906149a6565b60405180910390fd5b610bdb8282611d84565b5050565b7f000000000000000000000000000000000000000000000000000000000000000073ffffffffffffffffffffffffffffffffffffffff163073ffffffffffffffffffffffffffffffffffffffff1603610c6d576040517f08c379a0000000000000000000000000000000000000000000000000000000008152600401610c6490614a38565b60405180910390fd5b7f000000000000000000000000000000000000000000000000000000000000000073ffffffffffffffffffffffffffffffffffffffff16610cac611e67565b73ffffffffffffffffffffffffffffffffffffffff1614610d02576040517f08c379a0000000000000000000000000000000000000000000000000000000008152600401610cf990614aca565b60405180910390fd5b610d0b81611ebe565b610d6481600067ffffffffffffffff811115610d2a57610d296142d9565b5b6040519080825280601f01601f191660200182016040528015610d5c5781602001600182028036833780820191505090505b506000611eec565b50565b7f65d7a28e3265b37a6474929f336521b332c1681b933f6cb9f3376673440d862a610d9181611c8e565b610d9961205a565b50565b610db783838360405180602001604052806000815250611587565b505050565b610dcd610dc761183f565b82611900565b610e0c576040517f08c379a0000000000000000000000000000000000000000000000000000000008152600401610e0390614882565b60405180910390fd5b610e15816120bd565b50565b7f000000000000000000000000000000000000000000000000000000000000000073ffffffffffffffffffffffffffffffffffffffff163073ffffffffffffffffffffffffffffffffffffffff1603610ea6576040517f08c379a0000000000000000000000000000000000000000000000000000000008152600401610e9d90614a38565b60405180910390fd5b7f000000000000000000000000000000000000000000000000000000000000000073ffffffffffffffffffffffffffffffffffffffff16610ee5611e67565b73ffffffffffffffffffffffffffffffffffffffff1614610f3b576040517f08c379a0000000000000000000000000000000000000000000000000000000008152600401610f3290614aca565b60405180910390fd5b610f4482611ebe565b610f5082826001611eec565b5050565b6000610f5e610a08565b8210610f9f576040517f08c379a0000000000000000000000000000000000000000000000000000000008152600401610f9690614b5c565b60405180910390fd5b60998281548110610fb357610fb2614b7c565b5b90600052602060002001549050919050565b60007f000000000000000000000000000000000000000000000000000000000000000073ffffffffffffffffffffffffffffffffffffffff163073ffffffffffffffffffffffffffffffffffffffff1614611055576040517f08c379a000000000000000000000000000000000000000000000000000000000815260040161104c90614c1d565b60405180910390fd5b7f360894a13ba1a3210667c828492db98dca3e2076cc3735a920a3ca505d382bbc60001b905090565b600060fb60009054906101000a900460ff16905090565b6000806110a1836120c9565b9050600073ffffffffffffffffffffffffffffffffffffffff168173ffffffffffffffffffffffffffffffffffffffff1603611112576040517f08c379a000000000000000000000000000000000000000000000000000000000815260040161110990614c89565b60405180910390fd5b80915050919050565b60008073ffffffffffffffffffffffffffffffffffffffff168273ffffffffffffffffffffffffffffffffffffffff160361118b576040517f08c379a000000000000000000000000000000000000000000000000000000000815260040161118290614d1b565b60405180910390fd5b606860008373ffffffffffffffffffffffffffffffffffffffff1673ffffffffffffffffffffffffffffffffffffffff168152602001908152602001600020549050919050565b60008060019054906101000a900460ff161590508080156112035750600160008054906101000a900460ff1660ff16105b80611230575061121230612106565b15801561122f5750600160008054906101000a900460ff1660ff16145b5b61126f576040517f08c379a000000000000000000000000000000000000000000000000000000000815260040161126690614dad565b60405180910390fd5b60016000806101000a81548160ff021916908360ff16021790555080156112ac576001600060016101000a81548160ff0219169083151502179055505b6113206040518060400160405280600a81526020017f496d616765546f6b656e000000000000000000000000000000000000000000008152506040518060400160405280600481526020017f494d544b00000000000000000000000000000000000000000000000000000000815250612129565b611328612186565b6113306121d7565b611338612228565b611340612281565b6113486122d2565b611350612323565b61135d6000801b33611ca2565b6113877f65d7a28e3265b37a6474929f336521b332c1681b933f6cb9f3376673440d862a33611ca2565b6113b17f9f2df0fed2c77648de5860a4cc508cd0818c85b8b8a1ab4ceeef8d981c8956a633611ca2565b6113db7f189ab7a9244df0848122154315af71fe140f3db0fe014031783b0946b8c9d2e333611ca2565b80156114345760008060016101000a81548160ff0219169083151502179055507f7f26b83ff96e1f2b6a682f133852f6798a09c465da95921460cefb3847402498600160405161142b9190614e1f565b60405180910390a15b50565b7f65d7a28e3265b37a6474929f336521b332c1681b933f6cb9f3376673440d862a61146181611c8e565b611469612374565b50565b600061012d600084815260200190815260200160002060000160008373ffffffffffffffffffffffffffffffffffffffff1673ffffffffffffffffffffffffffffffffffffffff16815260200190815260200160002060009054906101000a900460ff16905092915050565b6060606680546114e7906146bb565b80601f0160208091040260200160405190810160405280929190818152602001828054611513906146bb565b80156115605780601f1061153557610100808354040283529160200191611560565b820191906000526020600020905b81548152906001019060200180831161154357829003601f168201915b5050505050905090565b6000801b81565b61158361157c61183f565b83836123d7565b5050565b61159861159261183f565b83611900565b6115d7576040517f08c379a00000000000000000000000000000000000000000000000000000000081526004016115ce90614882565b60405180910390fd5b6115e384848484612543565b50505050565b60606115f48261259f565b9050919050565b7f9f2df0fed2c77648de5860a4cc508cd0818c85b8b8a1ab4ceeef8d981c8956a661162581611c8e565b60006116326101f56126b1565b905061163f6101f56126bf565b61164984826126d5565b61165381846126f3565b50505050565b7f9f2df0fed2c77648de5860a4cc508cd0818c85b8b8a1ab4ceeef8d981c8956a681565b61168682610a75565b61168f81611c8e565b6116998383611d84565b505050565b7f65d7a28e3265b37a6474929f336521b332c1681b933f6cb9f3376673440d862a81565b6000606a60008473ffffffffffffffffffffffffffffffffffffffff1673ffffffffffffffffffffffffffffffffffffffff16815260200190815260200160002060008373ffffffffffffffffffffffffffffffffffffffff1673ffffffffffffffffffffffffffffffffffffffff16815260200190815260200160002060009054906101000a900460ff16905092915050565b7f189ab7a9244df0848122154315af71fe140f3db0fe014031783b0946b8c9d2e381565b60007f7965db0b000000000000000000000000000000000000000000000000000000007bffffffffffffffffffffffffffffffffffffffffffffffffffffffff1916827bffffffffffffffffffffffffffffffffffffffffffffffffffffffff191614806117ed57506117ec82612760565b5b9050919050565b6117fd816127da565b61183c576040517f08c379a000000000000000000000000000000000000000000000000000000000815260040161183390614c89565b60405180910390fd5b50565b600033905090565b816069600083815260200190815260200160002060006101000a81548173ffffffffffffffffffffffffffffffffffffffff021916908373ffffffffffffffffffffffffffffffffffffffff160217905550808273ffffffffffffffffffffffffffffffffffffffff166118ba83611095565b73ffffffffffffffffffffffffffffffffffffffff167f8c5be1e5ebec7d5bd14f71427d1e84f3dd0314c0f7b2291e5b200ac8c7c3b92560405160405180910390a45050565b60008061190c83611095565b90508073ffffffffffffffffffffffffffffffffffffffff168473ffffffffffffffffffffffffffffffffffffffff16148061194e575061194d81856116c2565b5b8061198c57508373ffffffffffffffffffffffffffffffffffffffff16611974846108ab565b73ffffffffffffffffffffffffffffffffffffffff16145b91505092915050565b8273ffffffffffffffffffffffffffffffffffffffff166119b582611095565b73ffffffffffffffffffffffffffffffffffffffff1614611a0b576040517f08c379a0000000000000000000000000000000000000000000000000000000008152600401611a0290614eac565b60405180910390fd5b600073ffffffffffffffffffffffffffffffffffffffff168273ffffffffffffffffffffffffffffffffffffffff1603611a7a576040517f08c379a0000000000000000000000000000000000000000000000000000000008152600401611a7190614f3e565b60405180910390fd5b611a87838383600161281b565b8273ffffffffffffffffffffffffffffffffffffffff16611aa782611095565b73ffffffffffffffffffffffffffffffffffffffff1614611afd576040517f08c379a0000000000000000000000000000000000000000000000000000000008152600401611af490614eac565b60405180910390fd5b6069600082815260200190815260200160002060006101000a81549073ffffffffffffffffffffffffffffffffffffffff02191690556001606860008573ffffffffffffffffffffffffffffffffffffffff1673ffffffffffffffffffffffffffffffffffffffff168152602001908152602001600020600082825403925050819055506001606860008473ffffffffffffffffffffffffffffffffffffffff1673ffffffffffffffffffffffffffffffffffffffff16815260200190815260200160002060008282540192505081905550816067600083815260200190815260200160002060006101000a81548173ffffffffffffffffffffffffffffffffffffffff021916908373ffffffffffffffffffffffffffffffffffffffff160217905550808273ffffffffffffffffffffffffffffffffffffffff168473ffffffffffffffffffffffffffffffffffffffff167fddf252ad1be2c89b69c2b068fc378daa952ba7f163c4a11628f55a4df523b3ef60405160405180910390a4611c898383836001612835565b505050565b611c9f81611c9a61183f565b61283b565b50565b611cac828261146c565b611d8057600161012d600084815260200190815260200160002060000160008373ffffffffffffffffffffffffffffffffffffffff1673ffffffffffffffffffffffffffffffffffffffff16815260200190815260200160002060006101000a81548160ff021916908315150217905550611d2561183f565b73ffffffffffffffffffffffffffffffffffffffff168173ffffffffffffffffffffffffffffffffffffffff16837f2f8788117e7eff1d82e926ec794901d17c78024a50270940304540a733656f0d60405160405180910390a45b5050565b611d8e828261146c565b15611e6357600061012d600084815260200190815260200160002060000160008373ffffffffffffffffffffffffffffffffffffffff1673ffffffffffffffffffffffffffffffffffffffff16815260200190815260200160002060006101000a81548160ff021916908315150217905550611e0861183f565b73ffffffffffffffffffffffffffffffffffffffff168173ffffffffffffffffffffffffffffffffffffffff16837ff6391f5c32d9c69d2a47ea670b442974b53935d1edc7fd64eb21e047a839171b60405160405180910390a45b5050565b6000611e957f360894a13ba1a3210667c828492db98dca3e2076cc3735a920a3ca505d382bbc60001b6128c0565b60000160009054906101000a900473ffffffffffffffffffffffffffffffffffffffff16905090565b7f189ab7a9244df0848122154315af71fe140f3db0fe014031783b0946b8c9d2e3611ee881611c8e565b5050565b611f187f4910fdfa16fed3260ed0e7147f7cc6da11a60208b5b9406d12a635614ffd914360001b6128ca565b60000160009054906101000a900460ff1615611f3c57611f37836128d4565b612055565b8273ffffffffffffffffffffffffffffffffffffffff166352d1902d6040518163ffffffff1660e01b8152600401602060405180830381865afa925050508015611fa457506040513d601f19601f82011682018060405250810190611fa19190614f73565b60015b611fe3576040517f08c379a0000000000000000000000000000000000000000000000000000000008152600401611fda90615012565b60405180910390fd5b7f360894a13ba1a3210667c828492db98dca3e2076cc3735a920a3ca505d382bbc60001b8114612048576040517f08c379a000000000000000000000000000000000000000000000000000000000815260040161203f906150a4565b60405180910390fd5b5061205483838361298d565b5b505050565b6120626129b9565b600060fb60006101000a81548160ff0219169083151502179055507f5db9ee0a495bf2e6ff9c91a7834c1ba4fdd244a5e8aa4e537bd38aeae4b073aa6120a661183f565b6040516120b391906140d1565b60405180910390a1565b6120c681612a02565b50565b60006067600083815260200190815260200160002060009054906101000a900473ffffffffffffffffffffffffffffffffffffffff169050919050565b6000808273ffffffffffffffffffffffffffffffffffffffff163b119050919050565b600060019054906101000a900460ff16612178576040517f08c379a000000000000000000000000000000000000000000000000000000000815260040161216f90615136565b60405180910390fd5b6121828282612a55565b5050565b600060019054906101000a900460ff166121d5576040517f08c379a00000000000000000000000000000000000000000000000000000000081526004016121cc90615136565b60405180910390fd5b565b600060019054906101000a900460ff16612226576040517f08c379a000000000000000000000000000000000000000000000000000000000815260040161221d90615136565b60405180910390fd5b565b600060019054906101000a900460ff16612277576040517f08c379a000000000000000000000000000000000000000000000000000000000815260040161226e90615136565b60405180910390fd5b61227f612ac8565b565b600060019054906101000a900460ff166122d0576040517f08c379a00000000000000000000000000000000000000000000000000000000081526004016122c790615136565b60405180910390fd5b565b600060019054906101000a900460ff16612321576040517f08c379a000000000000000000000000000000000000000000000000000000000815260040161231890615136565b60405180910390fd5b565b600060019054906101000a900460ff16612372576040517f08c379a000000000000000000000000000000000000000000000000000000000815260040161236990615136565b60405180910390fd5b565b61237c612b34565b600160fb60006101000a81548160ff0219169083151502179055507f62e78cea01bee320cd4e420270b5ea74000d11b0c9f74754ebdbfc544b05a2586123c061183f565b6040516123cd91906140d1565b60405180910390a1565b8173ffffffffffffffffffffffffffffffffffffffff168373ffffffffffffffffffffffffffffffffffffffff1603612445576040517f08c379a000000000000000000000000000000000000000000000000000000000815260040161243c906151a2565b60405180910390fd5b80606a60008573ffffffffffffffffffffffffffffffffffffffff1673ffffffffffffffffffffffffffffffffffffffff16815260200190815260200160002060008473ffffffffffffffffffffffffffffffffffffffff1673ffffffffffffffffffffffffffffffffffffffff16815260200190815260200160002060006101000a81548160ff0219169083151502179055508173ffffffffffffffffffffffffffffffffffffffff168373ffffffffffffffffffffffffffffffffffffffff167f17307eab39ab6107e8899845ad3d59bd9653f200f220920489ca2b5937696c31836040516125369190613f60565b60405180910390a3505050565b61254e848484611995565b61255a84848484612b7e565b612599576040517f08c379a000000000000000000000000000000000000000000000000000000000815260040161259090615234565b60405180910390fd5b50505050565b60606125aa826117f4565b600060c9600084815260200190815260200160002080546125ca906146bb565b80601f01602080910402602001604051908101604052809291908181526020018280546125f6906146bb565b80156126435780601f1061261857610100808354040283529160200191612643565b820191906000526020600020905b81548152906001019060200180831161262657829003601f168201915b505050505090506000612654612d05565b905060008151036126695781925050506126ac565b60008251111561269e578082604051602001612686929190615290565b604051602081830303815290604052925050506126ac565b6126a784612d1c565b925050505b919050565b600081600001549050919050565b6001816000016000828254019250508190555050565b6126ef828260405180602001604052806000815250612d84565b5050565b6126fc826127da565b61273b576040517f08c379a000000000000000000000000000000000000000000000000000000000815260040161273290615326565b60405180910390fd5b8060c96000848152602001908152602001600020908161275b91906154e8565b505050565b60007f780e9d63000000000000000000000000000000000000000000000000000000007bffffffffffffffffffffffffffffffffffffffffffffffffffffffff1916827bffffffffffffffffffffffffffffffffffffffffffffffffffffffff191614806127d357506127d282612ddf565b5b9050919050565b60008073ffffffffffffffffffffffffffffffffffffffff166127fc836120c9565b73ffffffffffffffffffffffffffffffffffffffff1614159050919050565b612823612b34565b61282f84848484612ec1565b50505050565b50505050565b612845828261146c565b6128bc576128528161301f565b6128608360001c602061304c565b604051602001612871929190615652565b6040516020818303038152906040526040517f08c379a00000000000000000000000000000000000000000000000000000000081526004016128b3919061400b565b60405180910390fd5b5050565b6000819050919050565b6000819050919050565b6128dd81612106565b61291c576040517f08c379a0000000000000000000000000000000000000000000000000000000008152600401612913906156fe565b60405180910390fd5b806129497f360894a13ba1a3210667c828492db98dca3e2076cc3735a920a3ca505d382bbc60001b6128c0565b60000160006101000a81548173ffffffffffffffffffffffffffffffffffffffff021916908373ffffffffffffffffffffffffffffffffffffffff16021790555050565b61299683613288565b6000825111806129a35750805b156129b4576129b283836132d7565b505b505050565b6129c161107e565b612a00576040517f08c379a00000000000000000000000000000000000000000000000000000000081526004016129f79061576a565b60405180910390fd5b565b612a0b816133bb565b600060c960008381526020019081526020016000208054612a2b906146bb565b905014612a525760c960008281526020019081526020016000206000612a519190613e4f565b5b50565b600060019054906101000a900460ff16612aa4576040517f08c379a0000000000000000000000000000000000000000000000000000000008152600401612a9b90615136565b60405180910390fd5b8160659081612ab391906154e8565b508060669081612ac391906154e8565b505050565b600060019054906101000a900460ff16612b17576040517f08c379a0000000000000000000000000000000000000000000000000000000008152600401612b0e90615136565b60405180910390fd5b600060fb60006101000a81548160ff021916908315150217905550565b612b3c61107e565b15612b7c576040517f08c379a0000000000000000000000000000000000000000000000000000000008152600401612b73906157d6565b60405180910390fd5b565b6000612b9f8473ffffffffffffffffffffffffffffffffffffffff16612106565b15612cf8578373ffffffffffffffffffffffffffffffffffffffff1663150b7a02612bc861183f565b8786866040518563ffffffff1660e01b8152600401612bea949392919061584b565b6020604051808303816000875af1925050508015612c2657506040513d601f19601f82011682018060405250810190612c2391906158ac565b60015b612ca8573d8060008114612c56576040519150601f19603f3d011682016040523d82523d6000602084013e612c5b565b606091505b506000815103612ca0576040517f08c379a0000000000000000000000000000000000000000000000000000000008152600401612c9790615234565b60405180910390fd5b805181602001fd5b63150b7a0260e01b7bffffffffffffffffffffffffffffffffffffffffffffffffffffffff1916817bffffffffffffffffffffffffffffffffffffffffffffffffffffffff191614915050612cfd565b600190505b949350505050565b606060405180602001604052806000815250905090565b6060612d27826117f4565b6000612d31612d05565b90506000815111612d515760405180602001604052806000815250612d7c565b80612d5b84613509565b604051602001612d6c929190615290565b6040516020818303038152906040525b915050919050565b612d8e83836135d7565b612d9b6000848484612b7e565b612dda576040517f08c379a0000000000000000000000000000000000000000000000000000000008152600401612dd190615234565b60405180910390fd5b505050565b60007f80ac58cd000000000000000000000000000000000000000000000000000000007bffffffffffffffffffffffffffffffffffffffffffffffffffffffff1916827bffffffffffffffffffffffffffffffffffffffffffffffffffffffff19161480612eaa57507f5b5e139f000000000000000000000000000000000000000000000000000000007bffffffffffffffffffffffffffffffffffffffffffffffffffffffff1916827bffffffffffffffffffffffffffffffffffffffffffffffffffffffff1916145b80612eba5750612eb9826137f4565b5b9050919050565b612ecd8484848461385e565b6001811115612f11576040517f08c379a0000000000000000000000000000000000000000000000000000000008152600401612f089061594b565b60405180910390fd5b6000829050600073ffffffffffffffffffffffffffffffffffffffff168573ffffffffffffffffffffffffffffffffffffffff1603612f5857612f5381613984565b612f97565b8373ffffffffffffffffffffffffffffffffffffffff168573ffffffffffffffffffffffffffffffffffffffff1614612f9657612f9585826139cd565b5b5b600073ffffffffffffffffffffffffffffffffffffffff168473ffffffffffffffffffffffffffffffffffffffff1603612fd957612fd481613b3a565b613018565b8473ffffffffffffffffffffffffffffffffffffffff168473ffffffffffffffffffffffffffffffffffffffff1614613017576130168482613c0b565b5b5b5050505050565b60606130458273ffffffffffffffffffffffffffffffffffffffff16601460ff1661304c565b9050919050565b60606000600283600261305f919061599a565b61306991906159dc565b67ffffffffffffffff811115613082576130816142d9565b5b6040519080825280601f01601f1916602001820160405280156130b45781602001600182028036833780820191505090505b5090507f3000000000000000000000000000000000000000000000000000000000000000816000815181106130ec576130eb614b7c565b5b60200101907effffffffffffffffffffffffffffffffffffffffffffffffffffffffffffff1916908160001a9053507f7800000000000000000000000000000000000000000000000000000000000000816001815181106131505761314f614b7c565b5b60200101907effffffffffffffffffffffffffffffffffffffffffffffffffffffffffffff1916908160001a90535060006001846002613190919061599a565b61319a91906159dc565b90505b600181111561323a577f3031323334353637383961626364656600000000000000000000000000000000600f8616601081106131dc576131db614b7c565b5b1a60f81b8282815181106131f3576131f2614b7c565b5b60200101907effffffffffffffffffffffffffffffffffffffffffffffffffffffffffffff1916908160001a905350600485901c94508061323390615a10565b905061319d565b506000841461327e576040517f08c379a000000000000000000000000000000000000000000000000000000000815260040161327590615a85565b60405180910390fd5b8091505092915050565b613291816128d4565b8073ffffffffffffffffffffffffffffffffffffffff167fbc7cd75a20ee27fd9adebab32041f755214dbc6bffa90cc0225b39da2e5c2d3b60405160405180910390a250565b60606132e283612106565b613321576040517f08c379a000000000000000000000000000000000000000000000000000000000815260040161331890615b17565b60405180910390fd5b6000808473ffffffffffffffffffffffffffffffffffffffff16846040516133499190615b73565b600060405180830381855af49150503d8060008114613384576040519150601f19603f3d011682016040523d82523d6000602084013e613389565b606091505b50915091506133b18282604051806060016040528060278152602001615cf560279139613c8a565b9250505092915050565b60006133c682611095565b90506133d681600084600161281b565b6133df82611095565b90506069600083815260200190815260200160002060006101000a81549073ffffffffffffffffffffffffffffffffffffffff02191690556001606860008373ffffffffffffffffffffffffffffffffffffffff1673ffffffffffffffffffffffffffffffffffffffff168152602001908152602001600020600082825403925050819055506067600083815260200190815260200160002060006101000a81549073ffffffffffffffffffffffffffffffffffffffff021916905581600073ffffffffffffffffffffffffffffffffffffffff168273ffffffffffffffffffffffffffffffffffffffff167fddf252ad1be2c89b69c2b068fc378daa952ba7f163c4a11628f55a4df523b3ef60405160405180910390a4613505816000846001612835565b5050565b60606000600161351884613cac565b01905060008167ffffffffffffffff811115613537576135366142d9565b5b6040519080825280601f01601f1916602001820160405280156135695781602001600182028036833780820191505090505b509050600082602001820190505b6001156135cc578080600190039150507f3031323334353637383961626364656600000000000000000000000000000000600a86061a8153600a85816135c0576135bf615b8a565b5b04945060008503613577575b819350505050919050565b600073ffffffffffffffffffffffffffffffffffffffff168273ffffffffffffffffffffffffffffffffffffffff1603613646576040517f08c379a000000000000000000000000000000000000000000000000000000000815260040161363d90615c05565b60405180910390fd5b61364f816127da565b1561368f576040517f08c379a000000000000000000000000000000000000000000000000000000000815260040161368690615c71565b60405180910390fd5b61369d60008383600161281b565b6136a6816127da565b156136e6576040517f08c379a00000000000000000000000000000000000000000000000000000000081526004016136dd90615c71565b60405180910390fd5b6001606860008473ffffffffffffffffffffffffffffffffffffffff1673ffffffffffffffffffffffffffffffffffffffff16815260200190815260200160002060008282540192505081905550816067600083815260200190815260200160002060006101000a81548173ffffffffffffffffffffffffffffffffffffffff021916908373ffffffffffffffffffffffffffffffffffffffff160217905550808273ffffffffffffffffffffffffffffffffffffffff16600073ffffffffffffffffffffffffffffffffffffffff167fddf252ad1be2c89b69c2b068fc378daa952ba7f163c4a11628f55a4df523b3ef60405160405180910390a46137f0600083836001612835565b5050565b60007f01ffc9a7000000000000000000000000000000000000000000000000000000007bffffffffffffffffffffffffffffffffffffffffffffffffffffffff1916827bffffffffffffffffffffffffffffffffffffffffffffffffffffffff1916149050919050565b600181111561397e57600073ffffffffffffffffffffffffffffffffffffffff168473ffffffffffffffffffffffffffffffffffffffff16146138f25780606860008673ffffffffffffffffffffffffffffffffffffffff1673ffffffffffffffffffffffffffffffffffffffff16815260200190815260200160002060008282546138ea9190615c91565b925050819055505b600073ffffffffffffffffffffffffffffffffffffffff168373ffffffffffffffffffffffffffffffffffffffff161461397d5780606860008573ffffffffffffffffffffffffffffffffffffffff1673ffffffffffffffffffffffffffffffffffffffff168152602001908152602001600020600082825461397591906159dc565b925050819055505b5b50505050565b609980549050609a600083815260200190815260200160002081905550609981908060018154018082558091505060019003906000526020600020016000909190919091505550565b600060016139da8461111b565b6139e49190615c91565b9050600060986000848152602001908152602001600020549050818114613ac9576000609760008673ffffffffffffffffffffffffffffffffffffffff1673ffffffffffffffffffffffffffffffffffffffff168152602001908152602001600020600084815260200190815260200160002054905080609760008773ffffffffffffffffffffffffffffffffffffffff1673ffffffffffffffffffffffffffffffffffffffff168152602001908152602001600020600084815260200190815260200160002081905550816098600083815260200190815260200160002081905550505b6098600084815260200190815260200160002060009055609760008573ffffffffffffffffffffffffffffffffffffffff1673ffffffffffffffffffffffffffffffffffffffff16815260200190815260200160002060008381526020019081526020016000206000905550505050565b60006001609980549050613b4e9190615c91565b90506000609a6000848152602001908152602001600020549050600060998381548110613b7e57613b7d614b7c565b5b906000526020600020015490508060998381548110613ba057613b9f614b7c565b5b906000526020600020018190555081609a600083815260200190815260200160002081905550609a6000858152602001908152602001600020600090556099805480613bef57613bee615cc5565b5b6001900381819060005260206000200160009055905550505050565b6000613c168361111b565b905081609760008573ffffffffffffffffffffffffffffffffffffffff1673ffffffffffffffffffffffffffffffffffffffff168152602001908152602001600020600083815260200190815260200160002081905550806098600084815260200190815260200160002081905550505050565b60608315613c9a57829050613ca5565b613ca48383613dff565b5b9392505050565b600080600090507a184f03e93ff9f4daa797ed6e38ed64bf6a1f0100000000000000008310613d0a577a184f03e93ff9f4daa797ed6e38ed64bf6a1f0100000000000000008381613d0057613cff615b8a565b5b0492506040810190505b6d04ee2d6d415b85acef81000000008310613d47576d04ee2d6d415b85acef81000000008381613d3d57613d3c615b8a565b5b0492506020810190505b662386f26fc100008310613d7657662386f26fc100008381613d6c57613d6b615b8a565b5b0492506010810190505b6305f5e1008310613d9f576305f5e1008381613d9557613d94615b8a565b5b0492506008810190505b6127108310613dc4576127108381613dba57613db9615b8a565b5b0492506004810190505b60648310613de75760648381613ddd57613ddc615b8a565b5b0492506002810190505b600a8310613df6576001810190505b80915050919050565b600082511115613e125781518083602001fd5b806040517f08c379a0000000000000000000000000000000000000000000000000000000008152600401613e46919061400b565b60405180910390fd5b508054613e5b906146bb565b6000825580601f10613e6d5750613e8c565b601f016020900490600052602060002090810190613e8b9190613e8f565b5b50565b5b80821115613ea8576000816000905550600101613e90565b5090565b6000604051905090565b600080fd5b600080fd5b60007fffffffff0000000000000000000000000000000000000000000000000000000082169050919050565b613ef581613ec0565b8114613f0057600080fd5b50565b600081359050613f1281613eec565b92915050565b600060208284031215613f2e57613f2d613eb6565b5b6000613f3c84828501613f03565b91505092915050565b60008115159050919050565b613f5a81613f45565b82525050565b6000602082019050613f756000830184613f51565b92915050565b600081519050919050565b600082825260208201905092915050565b60005b83811015613fb5578082015181840152602081019050613f9a565b60008484015250505050565b6000601f19601f8301169050919050565b6000613fdd82613f7b565b613fe78185613f86565b9350613ff7818560208601613f97565b61400081613fc1565b840191505092915050565b600060208201905081810360008301526140258184613fd2565b905092915050565b6000819050919050565b6140408161402d565b811461404b57600080fd5b50565b60008135905061405d81614037565b92915050565b60006020828403121561407957614078613eb6565b5b60006140878482850161404e565b91505092915050565b600073ffffffffffffffffffffffffffffffffffffffff82169050919050565b60006140bb82614090565b9050919050565b6140cb816140b0565b82525050565b60006020820190506140e660008301846140c2565b92915050565b6140f5816140b0565b811461410057600080fd5b50565b600081359050614112816140ec565b92915050565b6000806040838503121561412f5761412e613eb6565b5b600061413d85828601614103565b925050602061414e8582860161404e565b9150509250929050565b6141618161402d565b82525050565b600060208201905061417c6000830184614158565b92915050565b60008060006060848603121561419b5761419a613eb6565b5b60006141a986828701614103565b93505060206141ba86828701614103565b92505060406141cb8682870161404e565b9150509250925092565b6000819050919050565b6141e8816141d5565b81146141f357600080fd5b50565b600081359050614205816141df565b92915050565b60006020828403121561422157614220613eb6565b5b600061422f848285016141f6565b91505092915050565b614241816141d5565b82525050565b600060208201905061425c6000830184614238565b92915050565b6000806040838503121561427957614278613eb6565b5b6000614287858286016141f6565b925050602061429885828601614103565b9150509250929050565b6000602082840312156142b8576142b7613eb6565b5b60006142c684828501614103565b91505092915050565b600080fd5b600080fd5b7f4e487b7100000000000000000000000000000000000000000000000000000000600052604160045260246000fd5b61431182613fc1565b810181811067ffffffffffffffff821117156143305761432f6142d9565b5b80604052505050565b6000614343613eac565b905061434f8282614308565b919050565b600067ffffffffffffffff82111561436f5761436e6142d9565b5b61437882613fc1565b9050602081019050919050565b82818337600083830152505050565b60006143a76143a284614354565b614339565b9050828152602081018484840111156143c3576143c26142d4565b5b6143ce848285614385565b509392505050565b600082601f8301126143eb576143ea6142cf565b5b81356143fb848260208601614394565b91505092915050565b6000806040838503121561441b5761441a613eb6565b5b600061442985828601614103565b925050602083013567ffffffffffffffff81111561444a57614449613ebb565b5b614456858286016143d6565b9150509250929050565b61446981613f45565b811461447457600080fd5b50565b60008135905061448681614460565b92915050565b600080604083850312156144a3576144a2613eb6565b5b60006144b185828601614103565b92505060206144c285828601614477565b9150509250929050565b600080600080608085870312156144e6576144e5613eb6565b5b60006144f487828801614103565b945050602061450587828801614103565b93505060406145168782880161404e565b925050606085013567ffffffffffffffff81111561453757614536613ebb565b5b614543878288016143d6565b91505092959194509250565b600067ffffffffffffffff82111561456a576145696142d9565b5b61457382613fc1565b9050602081019050919050565b600061459361458e8461454f565b614339565b9050828152602081018484840111156145af576145ae6142d4565b5b6145ba848285614385565b509392505050565b600082601f8301126145d7576145d66142cf565b5b81356145e7848260208601614580565b91505092915050565b6000806040838503121561460757614606613eb6565b5b600061461585828601614103565b925050602083013567ffffffffffffffff81111561463657614635613ebb565b5b614642858286016145c2565b9150509250929050565b6000806040838503121561466357614662613eb6565b5b600061467185828601614103565b925050602061468285828601614103565b9150509250929050565b7f4e487b7100000000000000000000000000000000000000000000000000000000600052602260045260246000fd5b600060028204905060018216806146d357607f821691505b6020821081036146e6576146e561468c565b5b50919050565b7f4552433732313a20617070726f76616c20746f2063757272656e74206f776e6560008201527f7200000000000000000000000000000000000000000000000000000000000000602082015250565b6000614748602183613f86565b9150614753826146ec565b604082019050919050565b600060208201905081810360008301526147778161473b565b9050919050565b7f4552433732313a20617070726f76652063616c6c6572206973206e6f7420746f60008201527f6b656e206f776e6572206f7220617070726f76656420666f7220616c6c000000602082015250565b60006147da603d83613f86565b91506147e58261477e565b604082019050919050565b60006020820190508181036000830152614809816147cd565b9050919050565b7f4552433732313a2063616c6c6572206973206e6f7420746f6b656e206f776e6560008201527f72206f7220617070726f76656400000000000000000000000000000000000000602082015250565b600061486c602d83613f86565b915061487782614810565b604082019050919050565b6000602082019050818103600083015261489b8161485f565b9050919050565b7f455243373231456e756d657261626c653a206f776e657220696e646578206f7560008201527f74206f6620626f756e6473000000000000000000000000000000000000000000602082015250565b60006148fe602b83613f86565b9150614909826148a2565b604082019050919050565b6000602082019050818103600083015261492d816148f1565b9050919050565b7f416363657373436f6e74726f6c3a2063616e206f6e6c792072656e6f756e636560008201527f20726f6c657320666f722073656c660000000000000000000000000000000000602082015250565b6000614990602f83613f86565b915061499b82614934565b604082019050919050565b600060208201905081810360008301526149bf81614983565b9050919050565b7f46756e6374696f6e206d7573742062652063616c6c6564207468726f7567682060008201527f64656c656761746563616c6c0000000000000000000000000000000000000000602082015250565b6000614a22602c83613f86565b9150614a2d826149c6565b604082019050919050565b60006020820190508181036000830152614a5181614a15565b9050919050565b7f46756e6374696f6e206d7573742062652063616c6c6564207468726f7567682060008201527f6163746976652070726f78790000000000000000000000000000000000000000602082015250565b6000614ab4602c83613f86565b9150614abf82614a58565b604082019050919050565b60006020820190508181036000830152614ae381614aa7565b9050919050565b7f455243373231456e756d657261626c653a20676c6f62616c20696e646578206f60008201527f7574206f6620626f756e64730000000000000000000000000000000000000000602082015250565b6000614b46602c83613f86565b9150614b5182614aea565b604082019050919050565b60006020820190508181036000830152614b7581614b39565b9050919050565b7f4e487b7100000000000000000000000000000000000000000000000000000000600052603260045260246000fd5b7f555550535570677261646561626c653a206d757374206e6f742062652063616c60008201527f6c6564207468726f7567682064656c656761746563616c6c0000000000000000602082015250565b6000614c07603883613f86565b9150614c1282614bab565b604082019050919050565b60006020820190508181036000830152614c3681614bfa565b9050919050565b7f4552433732313a20696e76616c696420746f6b656e2049440000000000000000600082015250565b6000614c73601883613f86565b9150614c7e82614c3d565b602082019050919050565b60006020820190508181036000830152614ca281614c66565b9050919050565b7f4552433732313a2061646472657373207a65726f206973206e6f74206120766160008201527f6c6964206f776e65720000000000000000000000000000000000000000000000602082015250565b6000614d05602983613f86565b9150614d1082614ca9565b604082019050919050565b60006020820190508181036000830152614d3481614cf8565b9050919050565b7f496e697469616c697a61626c653a20636f6e747261637420697320616c72656160008201527f647920696e697469616c697a6564000000000000000000000000000000000000602082015250565b6000614d97602e83613f86565b9150614da282614d3b565b604082019050919050565b60006020820190508181036000830152614dc681614d8a565b9050919050565b6000819050919050565b600060ff82169050919050565b6000819050919050565b6000614e09614e04614dff84614dcd565b614de4565b614dd7565b9050919050565b614e1981614dee565b82525050565b6000602082019050614e346000830184614e10565b92915050565b7f4552433732313a207472616e736665722066726f6d20696e636f72726563742060008201527f6f776e6572000000000000000000000000000000000000000000000000000000602082015250565b6000614e96602583613f86565b9150614ea182614e3a565b604082019050919050565b60006020820190508181036000830152614ec581614e89565b9050919050565b7f4552433732313a207472616e7366657220746f20746865207a65726f2061646460008201527f7265737300000000000000000000000000000000000000000000000000000000602082015250565b6000614f28602483613f86565b9150614f3382614ecc565b604082019050919050565b60006020820190508181036000830152614f5781614f1b565b9050919050565b600081519050614f6d816141df565b92915050565b600060208284031215614f8957614f88613eb6565b5b6000614f9784828501614f5e565b91505092915050565b7f45524331393637557067726164653a206e657720696d706c656d656e7461746960008201527f6f6e206973206e6f742055555053000000000000000000000000000000000000602082015250565b6000614ffc602e83613f86565b915061500782614fa0565b604082019050919050565b6000602082019050818103600083015261502b81614fef565b9050919050565b7f45524331393637557067726164653a20756e737570706f727465642070726f7860008201527f6961626c65555549440000000000000000000000000000000000000000000000602082015250565b600061508e602983613f86565b915061509982615032565b604082019050919050565b600060208201905081810360008301526150bd81615081565b9050919050565b7f496e697469616c697a61626c653a20636f6e7472616374206973206e6f74206960008201527f6e697469616c697a696e67000000000000000000000000000000000000000000602082015250565b6000615120602b83613f86565b915061512b826150c4565b604082019050919050565b6000602082019050818103600083015261514f81615113565b9050919050565b7f4552433732313a20617070726f766520746f2063616c6c657200000000000000600082015250565b600061518c601983613f86565b915061519782615156565b602082019050919050565b600060208201905081810360008301526151bb8161517f565b9050919050565b7f4552433732313a207472616e7366657220746f206e6f6e20455243373231526560008201527f63656976657220696d706c656d656e7465720000000000000000000000000000602082015250565b600061521e603283613f86565b9150615229826151c2565b604082019050919050565b6000602082019050818103600083015261524d81615211565b9050919050565b600081905092915050565b600061526a82613f7b565b6152748185615254565b9350615284818560208601613f97565b80840191505092915050565b600061529c828561525f565b91506152a8828461525f565b91508190509392505050565b7f45524337323155524953746f726167653a2055524920736574206f66206e6f6e60008201527f6578697374656e7420746f6b656e000000000000000000000000000000000000602082015250565b6000615310602e83613f86565b915061531b826152b4565b604082019050919050565b6000602082019050818103600083015261533f81615303565b9050919050565b60008190508160005260206000209050919050565b60006020601f8301049050919050565b600082821b905092915050565b6000600883026153a87fffffffffffffffffffffffffffffffffffffffffffffffffffffffffffffffff8261536b565b6153b2868361536b565b95508019841693508086168417925050509392505050565b60006153e56153e06153db8461402d565b614de4565b61402d565b9050919050565b6000819050919050565b6153ff836153ca565b61541361540b826153ec565b848454615378565b825550505050565b600090565b61542861541b565b6154338184846153f6565b505050565b5b818110156154575761544c600082615420565b600181019050615439565b5050565b601f82111561549c5761546d81615346565b6154768461535b565b81016020851015615485578190505b6154996154918561535b565b830182615438565b50505b505050565b600082821c905092915050565b60006154bf600019846008026154a1565b1980831691505092915050565b60006154d883836154ae565b9150826002028217905092915050565b6154f182613f7b565b67ffffffffffffffff81111561550a576155096142d9565b5b61551482546146bb565b61551f82828561545b565b600060209050601f8311600181146155525760008415615540578287015190505b61554a85826154cc565b8655506155b2565b601f19841661556086615346565b60005b8281101561558857848901518255600182019150602085019450602081019050615563565b868310156155a557848901516155a1601f8916826154ae565b8355505b6001600288020188555050505b505050505050565b7f416363657373436f6e74726f6c3a206163636f756e7420000000000000000000600082015250565b60006155f0601783615254565b91506155fb826155ba565b601782019050919050565b7f206973206d697373696e6720726f6c6520000000000000000000000000000000600082015250565b600061563c601183615254565b915061564782615606565b601182019050919050565b600061565d826155e3565b9150615669828561525f565b91506156748261562f565b9150615680828461525f565b91508190509392505050565b7f455243313936373a206e657720696d706c656d656e746174696f6e206973206e60008201527f6f74206120636f6e747261637400000000000000000000000000000000000000602082015250565b60006156e8602d83613f86565b91506156f38261568c565b604082019050919050565b60006020820190508181036000830152615717816156db565b9050919050565b7f5061757361626c653a206e6f7420706175736564000000000000000000000000600082015250565b6000615754601483613f86565b915061575f8261571e565b602082019050919050565b6000602082019050818103600083015261578381615747565b9050919050565b7f5061757361626c653a2070617573656400000000000000000000000000000000600082015250565b60006157c0601083613f86565b91506157cb8261578a565b602082019050919050565b600060208201905081810360008301526157ef816157b3565b9050919050565b600081519050919050565b600082825260208201905092915050565b600061581d826157f6565b6158278185615801565b9350615837818560208601613f97565b61584081613fc1565b840191505092915050565b600060808201905061586060008301876140c2565b61586d60208301866140c2565b61587a6040830185614158565b818103606083015261588c8184615812565b905095945050505050565b6000815190506158a681613eec565b92915050565b6000602082840312156158c2576158c1613eb6565b5b60006158d084828501615897565b91505092915050565b7f455243373231456e756d657261626c653a20636f6e736563757469766520747260008201527f616e7366657273206e6f7420737570706f727465640000000000000000000000602082015250565b6000615935603583613f86565b9150615940826158d9565b604082019050919050565b6000602082019050818103600083015261596481615928565b9050919050565b7f4e487b7100000000000000000000000000000000000000000000000000000000600052601160045260246000fd5b60006159a58261402d565b91506159b08361402d565b92508282026159be8161402d565b915082820484148315176159d5576159d461596b565b5b5092915050565b60006159e78261402d565b91506159f28361402d565b9250828201905080821115615a0a57615a0961596b565b5b92915050565b6000615a1b8261402d565b915060008203615a2e57615a2d61596b565b5b600182039050919050565b7f537472696e67733a20686578206c656e67746820696e73756666696369656e74600082015250565b6000615a6f602083613f86565b9150615a7a82615a39565b602082019050919050565b60006020820190508181036000830152615a9e81615a62565b9050919050565b7f416464726573733a2064656c65676174652063616c6c20746f206e6f6e2d636f60008201527f6e74726163740000000000000000000000000000000000000000000000000000602082015250565b6000615b01602683613f86565b9150615b0c82615aa5565b604082019050919050565b60006020820190508181036000830152615b3081615af4565b9050919050565b600081905092915050565b6000615b4d826157f6565b615b578185615b37565b9350615b67818560208601613f97565b80840191505092915050565b6000615b7f8284615b42565b915081905092915050565b7f4e487b7100000000000000000000000000000000000000000000000000000000600052601260045260246000fd5b7f4552433732313a206d696e7420746f20746865207a65726f2061646472657373600082015250565b6000615bef602083613f86565b9150615bfa82615bb9565b602082019050919050565b60006020820190508181036000830152615c1e81615be2565b9050919050565b7f4552433732313a20746f6b656e20616c7265616479206d696e74656400000000600082015250565b6000615c5b601c83613f86565b9150615c6682615c25565b602082019050919050565b60006020820190508181036000830152615c8a81615c4e565b9050919050565b6000615c9c8261402d565b9150615ca78361402d565b9250828203905081811115615cbf57615cbe61596b565b5b92915050565b7f4e487b7100000000000000000000000000000000000000000000000000000000600052603160045260246000fdfe416464726573733a206c6f772d6c6576656c2064656c65676174652063616c6c206661696c6564a2646970667358221220b47f8cb7d188843bb8f3f61822230944b5e9f64688869702d3c4780ab2554d4464736f6c63430008110033",
  "linkReferences": {},
  "deployedLinkReferences": {}
}