{
  "_format": "hh-sol-artifact-1",
  "contractName": "ImageMarketplace",
  "sourceName": "contracts/ImageMarketplace.sol",
  "abi": [
    {
      "inputs": [],
      "stateMutability": "nonpayable",
      "type": "constructor"
    },
    {
      "anonymous": false,
      "inputs": [
        {
          "indexed": false,
          "internalType": "address",
          "name": "previousAdmin",
          "type": "address"
        },
        {
          "indexed": false,
          "internalType": "address",
          "name": "newAdmin",
          "type": "address"
        }
      ],
      "name": "AdminChanged",
      "type": "event"
    },
    {
      "anonymous": false,
      "inputs": [
        {
          "indexed": true,
          "internalType": "address",
          "name": "beacon",
          "type": "address"
        }
      ],
      "name": "BeaconUpgraded",
      "type": "event"
    },
    {
      "anonymous": false,
      "inputs": [
        {
          "indexed": true,
          "internalType": "uint256",
          "name": "marketItemId",
          "type": "uint256"
        },
        {
          "indexed": true,
          "internalType": "uint256",
          "name": "tokenId",
          "type": "uint256"
        },
        {
          "indexed": true,
          "internalType": "address",
          "name": "nftContract",
          "type": "address"
        },
        {
          "indexed": false,
          "internalType": "address",
          "name": "seller",
          "type": "address"
        },
        {
          "indexed": false,
          "internalType": "address",
          "name": "owner",
          "type": "address"
        },
        {
          "indexed": false,
          "internalType": "uint256",
          "name": "price",
          "type": "uint256"
        }
      ],
      "name": "BuyImageNFT",
      "type": "event"
    },
    {
      "anonymous": false,
      "inputs": [
        {
          "indexed": true,
          "internalType": "uint256",
          "name": "marketItemId",
          "type": "uint256"
        },
        {
          "indexed": false,
          "internalType": "address",
          "name": "nftContract",
          "type": "address"
        }
      ],
      "name": "CancelListImageNFT",
      "type": "event"
    },
    {
      "anonymous": false,
      "inputs": [
        {
          "indexed": false,
          "internalType": "uint8",
          "name": "version",
          "type": "uint8"
        }
      ],
      "name": "Initialized",
      "type": "event"
    },
    {
      "anonymous": false,
      "inputs": [
        {
          "indexed": true,
          "internalType": "uint256",
          "name": "marketItemId",
          "type": "uint256"
        },
        {
          "indexed": true,
          "internalType": "uint256",
          "name": "tokenId",
          "type": "uint256"
        },
        {
          "indexed": true,
          "internalType": "address",
          "name": "nftContract",
          "type": "address"
        },
        {
          "indexed": false,
          "internalType": "uint256",
          "name": "price",
          "type": "uint256"
        },
        {
          "indexed": false,
          "internalType": "address",
          "name": "seller",
          "type": "address"
        },
        {
          "indexed": false,
          "internalType": "address",
          "name": "owner",
          "type": "address"
        }
      ],
      "name": "ListImageNFT",
      "type": "event"
    },
    {
      "anonymous": false,
      "inputs": [
        {
          "indexed": true,
          "internalType": "address",
          "name": "previousOwner",
          "type": "address"
        },
        {
          "indexed": true,
          "internalType": "address",
          "name": "newOwner",
          "type": "address"
        }
      ],
      "name": "OwnershipTransferred",
      "type": "event"
    },
    {
      "anonymous": false,
      "inputs": [
        {
          "indexed": true,
          "internalType": "address",
          "name": "implementation",
          "type": "address"
        }
      ],
      "name": "Upgraded",
      "type": "event"
    },
    {
      "inputs": [],
      "name": "_itemsCancelled",
      "outputs": [
        {
          "internalType": "uint256",
          "name": "_value",
          "type": "uint256"
        }
      ],
      "stateMutability": "view",
      "type": "function"
    },
    {
      "inputs": [],
      "name": "_itemsSold",
      "outputs": [
        {
          "internalType": "uint256",
          "name": "_value",
          "type": "uint256"
        }
      ],
      "stateMutability": "view",
      "type": "function"
    },
    {
      "inputs": [
        {
          "internalType": "uint256",
          "name": "marketItemId",
          "type": "uint256"
        }
      ],
      "name": "buyImageNFT",
      "outputs": [],
      "stateMutability": "payable",
      "type": "function"
    },
    {
      "inputs": [
        {
          "internalType": "uint256",
          "name": "marketItemId",
          "type": "uint256"
        }
      ],
      "name": "cancelListImageNFT",
      "outputs": [],
      "stateMutability": "nonpayable",
      "type": "function"
    },
    {
      "inputs": [],
      "name": "getListingFee",
      "outputs": [
        {
          "internalType": "uint256",
          "name": "",
          "type": "uint256"
        }
      ],
      "stateMutability": "view",
      "type": "function"
    },
    {
      "inputs": [],
      "name": "initialize",
      "outputs": [],
      "stateMutability": "nonpayable",
      "type": "function"
    },
    {
      "inputs": [
        {
          "internalType": "address",
          "name": "_nftContract",
          "type": "address"
        },
        {
          "internalType": "uint256",
          "name": "_tokenId",
          "type": "uint256"
        },
        {
          "internalType": "uint256",
          "name": "_price",
          "type": "uint256"
        }
      ],
      "name": "listImageNFT",
      "outputs": [
        {
          "internalType": "uint256",
          "name": "",
          "type": "uint256"
        }
      ],
      "stateMutability": "nonpayable",
      "type": "function"
    },
    {
      "inputs": [],
      "name": "nft",
      "outputs": [
        {
          "internalType": "contract IERC721Upgradeable",
          "name": "",
          "type": "address"
        }
      ],
      "stateMutability": "view",
      "type": "function"
    },
    {
      "inputs": [],
      "name": "nftContract",
      "outputs": [
        {
          "internalType": "address",
          "name": "",
          "type": "address"
        }
      ],
      "stateMutability": "view",
      "type": "function"
    },
    {
      "inputs": [],
      "name": "owner",
      "outputs": [
        {
          "internalType": "address",
          "name": "",
          "type": "address"
        }
      ],
      "stateMutability": "view",
      "type": "function"
    },
    {
      "inputs": [],
      "name": "proxiableUUID",
      "outputs": [
        {
          "internalType": "bytes32",
          "name": "",
          "type": "bytes32"
        }
      ],
      "stateMutability": "view",
      "type": "function"
    },
    {
      "inputs": [],
      "name": "renounceOwnership",
      "outputs": [],
      "stateMutability": "nonpayable",
      "type": "function"
    },
    {
      "inputs": [
        {
          "internalType": "address",
          "name": "_nftContract",
          "type": "address"
        }
      ],
      "name": "setNftContract",
      "outputs": [],
      "stateMutability": "nonpayable",
      "type": "function"
    },
    {
      "inputs": [
        {
          "internalType": "address",
          "name": "newOwner",
          "type": "address"
        }
      ],
      "name": "transferOwnership",
      "outputs": [],
      "stateMutability": "nonpayable",
      "type": "function"
    },
    {
      "inputs": [
        {
          "internalType": "address",
          "name": "newImplementation",
          "type": "address"
        }
      ],
      "name": "upgradeTo",
      "outputs": [],
      "stateMutability": "nonpayable",
      "type": "function"
    },
    {
      "inputs": [
        {
          "internalType": "address",
          "name": "newImplementation",
          "type": "address"
        },
        {
          "internalType": "bytes",
          "name": "data",
          "type": "bytes"
        }
      ],
      "name": "upgradeToAndCall",
      "outputs": [],
      "stateMutability": "payable",
      "type": "function"
    },
    {
      "inputs": [
        {
          "internalType": "address",
          "name": "",
          "type": "address"
        }
      ],
      "name": "whitelistNFT",
      "outputs": [
        {
          "internalType": "bool",
          "name": "",
          "type": "bool"
        }
      ],
      "stateMutability": "view",
      "type": "function"
    }
  ],
  "bytecode": "0x60a06040523073ffffffffffffffffffffffffffffffffffffffff1660809073ffffffffffffffffffffffffffffffffffffffff168152503480156200004457600080fd5b50620000556200005b60201b60201c565b62000206565b600060019054906101000a900460ff1615620000ae576040517f08c379a0000000000000000000000000000000000000000000000000000000008152600401620000a590620001a9565b60405180910390fd5b60ff801660008054906101000a900460ff1660ff161015620001205760ff6000806101000a81548160ff021916908360ff1602179055507f7f26b83ff96e1f2b6a682f133852f6798a09c465da95921460cefb384740249860ff604051620001179190620001e9565b60405180910390a15b565b600082825260208201905092915050565b7f496e697469616c697a61626c653a20636f6e747261637420697320696e69746960008201527f616c697a696e6700000000000000000000000000000000000000000000000000602082015250565b60006200019160278362000122565b91506200019e8262000133565b604082019050919050565b60006020820190508181036000830152620001c48162000182565b9050919050565b600060ff82169050919050565b620001e381620001cb565b82525050565b6000602082019050620002006000830184620001d8565b92915050565b608051612f1b6200023e600039600081816103b60152818161044401528181610565015281816105f301526106a30152612f1b6000f3fe6080604052600436106100fe5760003560e01c806387506a0d11610095578063bec98be411610064578063bec98be4146102cf578063d56d229d146102f8578063e86d43ee14610323578063f2fde38b14610360578063f49e3c6914610389576100fe565b806387506a0d146102115780638da5cb5b1461023c578063b8fe6abe14610267578063bcdbfe6814610292576100fe565b806352f5ad77116100d157806352f5ad771461019e5780635521a8f5146101c7578063715018a6146101e35780638129fc1c146101fa576100fe565b80633659cfe61461010357806347ccca021461012c5780634f1ef2861461015757806352d1902d14610173575b600080fd5b34801561010f57600080fd5b5061012a60048036038101906101259190611e1d565b6103b4565b005b34801561013857600080fd5b5061014161053c565b60405161014e9190611ea9565b60405180910390f35b610171600480360381019061016c919061200a565b610563565b005b34801561017f57600080fd5b5061018861069f565b604051610195919061207f565b60405180910390f35b3480156101aa57600080fd5b506101c560048036038101906101c09190611e1d565b610758565b005b6101e160048036038101906101dc91906120d0565b610855565b005b3480156101ef57600080fd5b506101f8610bf2565b005b34801561020657600080fd5b5061020f610c06565b005b34801561021d57600080fd5b50610226610d5b565b604051610233919061210c565b60405180910390f35b34801561024857600080fd5b50610251610d67565b60405161025e9190612136565b60405180910390f35b34801561027357600080fd5b5061027c610d91565b604051610289919061210c565b60405180910390f35b34801561029e57600080fd5b506102b960048036038101906102b49190611e1d565b610d9c565b6040516102c6919061216c565b60405180910390f35b3480156102db57600080fd5b506102f660048036038101906102f191906120d0565b610dbc565b005b34801561030457600080fd5b5061030d61106f565b60405161031a9190612136565b60405180910390f35b34801561032f57600080fd5b5061034a60048036038101906103459190612187565b611095565b604051610357919061210c565b60405180910390f35b34801561036c57600080fd5b5061038760048036038101906103829190611e1d565b61155e565b005b34801561039557600080fd5b5061039e6115e1565b6040516103ab919061210c565b60405180910390f35b7f000000000000000000000000000000000000000000000000000000000000000073ffffffffffffffffffffffffffffffffffffffff163073ffffffffffffffffffffffffffffffffffffffff1603610442576040517f08c379a00000000000000000000000000000000000000000000000000000000081526004016104399061225d565b60405180910390fd5b7f000000000000000000000000000000000000000000000000000000000000000073ffffffffffffffffffffffffffffffffffffffff166104816115ed565b73ffffffffffffffffffffffffffffffffffffffff16146104d7576040517f08c379a00000000000000000000000000000000000000000000000000000000081526004016104ce906122ef565b60405180910390fd5b6104e081611644565b61053981600067ffffffffffffffff8111156104ff576104fe611edf565b5b6040519080825280601f01601f1916602001820160405280156105315781602001600182028036833780820191505090505b506000611647565b50565b61010060009054906101000a900473ffffffffffffffffffffffffffffffffffffffff1681565b7f000000000000000000000000000000000000000000000000000000000000000073ffffffffffffffffffffffffffffffffffffffff163073ffffffffffffffffffffffffffffffffffffffff16036105f1576040517f08c379a00000000000000000000000000000000000000000000000000000000081526004016105e89061225d565b60405180910390fd5b7f000000000000000000000000000000000000000000000000000000000000000073ffffffffffffffffffffffffffffffffffffffff166106306115ed565b73ffffffffffffffffffffffffffffffffffffffff1614610686576040517f08c379a000000000000000000000000000000000000000000000000000000000815260040161067d906122ef565b60405180910390fd5b61068f82611644565b61069b82826001611647565b5050565b60007f000000000000000000000000000000000000000000000000000000000000000073ffffffffffffffffffffffffffffffffffffffff163073ffffffffffffffffffffffffffffffffffffffff161461072f576040517f08c379a000000000000000000000000000000000000000000000000000000000815260040161072690612381565b60405180910390fd5b7f360894a13ba1a3210667c828492db98dca3e2076cc3735a920a3ca505d382bbc60001b905090565b6107606117b5565b600073ffffffffffffffffffffffffffffffffffffffff168173ffffffffffffffffffffffffffffffffffffffff16036107cf576040517f08c379a00000000000000000000000000000000000000000000000000000000081526004016107c6906123ed565b60405180910390fd5b8060ff60006101000a81548173ffffffffffffffffffffffffffffffffffffffff021916908373ffffffffffffffffffffffffffffffffffffffff1602179055508061010060006101000a81548173ffffffffffffffffffffffffffffffffffffffff021916908373ffffffffffffffffffffffffffffffffffffffff16021790555050565b61085d611833565b6000610103600083815260200190815260200160002090503373ffffffffffffffffffffffffffffffffffffffff168160030160009054906101000a900473ffffffffffffffffffffffffffffffffffffffff1673ffffffffffffffffffffffffffffffffffffffff1603610907576040517f08c379a00000000000000000000000000000000000000000000000000000000081526004016108fe90612459565b60405180910390fd5b61010060009054906101000a900473ffffffffffffffffffffffffffffffffffffffff1673ffffffffffffffffffffffffffffffffffffffff166323b872dd303384600101546040518463ffffffff1660e01b815260040161096b93929190612479565b600060405180830381600087803b15801561098557600080fd5b505af1158015610999573d6000803e3d6000fd5b50505050338160040160006101000a81548173ffffffffffffffffffffffffffffffffffffffff021916908373ffffffffffffffffffffffffffffffffffffffff1602179055508060050154341015610a27576040517f08c379a0000000000000000000000000000000000000000000000000000000008152600401610a1e906124fc565b60405180910390fd5b8060030160009054906101000a900473ffffffffffffffffffffffffffffffffffffffff1673ffffffffffffffffffffffffffffffffffffffff166108fc349081150290604051600060405180830381858888f19350505050158015610a91573d6000803e3d6000fd5b5060ff60009054906101000a900473ffffffffffffffffffffffffffffffffffffffff1673ffffffffffffffffffffffffffffffffffffffff16816001015482600001547f4d53728cfa3cbab50a7f8b0fe592c196dbcddeaaf265a6f91fe6998cf30ffe688460030160009054906101000a900473ffffffffffffffffffffffffffffffffffffffff16338660050154604051610b3093929190612479565b60405180910390a4610b4260fc611882565b610103600083815260200190815260200160002060008082016000905560018201600090556002820160006101000a81549073ffffffffffffffffffffffffffffffffffffffff02191690556003820160006101000a81549073ffffffffffffffffffffffffffffffffffffffff02191690556004820160006101000a81549073ffffffffffffffffffffffffffffffffffffffff02191690556005820160009055505050610bef611898565b50565b610bfa6117b5565b610c0460006118a2565b565b60008060019054906101000a900460ff16159050808015610c375750600160008054906101000a900460ff1660ff16105b80610c645750610c4630611968565b158015610c635750600160008054906101000a900460ff1660ff16145b5b610ca3576040517f08c379a0000000000000000000000000000000000000000000000000000000008152600401610c9a9061258e565b60405180910390fd5b60016000806101000a81548160ff021916908360ff1602179055508015610ce0576001600060016101000a81548160ff0219169083151502179055505b610ce861198b565b610cf06119e4565b669fdf42f6e48000610101819055508015610d585760008060016101000a81548160ff0219169083151502179055507f7f26b83ff96e1f2b6a682f133852f6798a09c465da95921460cefb38474024986001604051610d4f91906125f6565b60405180910390a15b50565b60fc8060000154905081565b6000603360009054906101000a900473ffffffffffffffffffffffffffffffffffffffff16905090565b600061010154905090565b60fe6020528060005260406000206000915054906101000a900460ff1681565b3373ffffffffffffffffffffffffffffffffffffffff16610103600083815260200190815260200160002060030160009054906101000a900473ffffffffffffffffffffffffffffffffffffffff1673ffffffffffffffffffffffffffffffffffffffff1614610e61576040517f08c379a0000000000000000000000000000000000000000000000000000000008152600401610e589061265d565b60405180910390fd5b600061010360008381526020019081526020016000206005015411610ebb576040517f08c379a0000000000000000000000000000000000000000000000000000000008152600401610eb2906126c9565b60405180910390fd5b61010060009054906101000a900473ffffffffffffffffffffffffffffffffffffffff1673ffffffffffffffffffffffffffffffffffffffff166323b872dd30336101036000868152602001908152602001600020600101546040518463ffffffff1660e01b8152600401610f3293929190612479565b600060405180830381600087803b158015610f4c57600080fd5b505af1158015610f60573d6000803e3d6000fd5b50505050610103600082815260200190815260200160002060008082016000905560018201600090556002820160006101000a81549073ffffffffffffffffffffffffffffffffffffffff02191690556003820160006101000a81549073ffffffffffffffffffffffffffffffffffffffff02191690556004820160006101000a81549073ffffffffffffffffffffffffffffffffffffffff021916905560058201600090555050807f46ec63ef688239f20059301eea7e7b76f5bdf10b1d6e5a97e40a02787c55987e60ff60009054906101000a900473ffffffffffffffffffffffffffffffffffffffff1660405161105a9190612136565b60405180910390a261106c60fd611882565b50565b60ff60009054906101000a900473ffffffffffffffffffffffffffffffffffffffff1681565b600061109f611833565b600082116110e2576040517f08c379a00000000000000000000000000000000000000000000000000000000081526004016110d990612735565b60405180910390fd5b3373ffffffffffffffffffffffffffffffffffffffff1661010060009054906101000a900473ffffffffffffffffffffffffffffffffffffffff1673ffffffffffffffffffffffffffffffffffffffff16636352211e856040518263ffffffff1660e01b8152600401611155919061210c565b602060405180830381865afa158015611172573d6000803e3d6000fd5b505050506040513d601f19601f82011682018060405250810190611196919061276a565b73ffffffffffffffffffffffffffffffffffffffff16146111ec576040517f08c379a00000000000000000000000000000000000000000000000000000000081526004016111e3906127e3565b60405180910390fd5b60006101036000858152602001908152602001600020600501541115611247576040517f08c379a000000000000000000000000000000000000000000000000000000000815260040161123e9061284f565b60405180910390fd5b60fe60003373ffffffffffffffffffffffffffffffffffffffff1673ffffffffffffffffffffffffffffffffffffffff16815260200190815260200160002060009054906101000a900460ff16156112d4576040517f08c379a00000000000000000000000000000000000000000000000000000000081526004016112cb906128bb565b60405180910390fd5b6112de60fb611882565b60006112ea60fb611a3d565b90506040518060c001604052808281526020018581526020018673ffffffffffffffffffffffffffffffffffffffff1681526020013373ffffffffffffffffffffffffffffffffffffffff1681526020013073ffffffffffffffffffffffffffffffffffffffff168152602001848152506101036000838152602001908152602001600020600082015181600001556020820151816001015560408201518160020160006101000a81548173ffffffffffffffffffffffffffffffffffffffff021916908373ffffffffffffffffffffffffffffffffffffffff16021790555060608201518160030160006101000a81548173ffffffffffffffffffffffffffffffffffffffff021916908373ffffffffffffffffffffffffffffffffffffffff16021790555060808201518160040160006101000a81548173ffffffffffffffffffffffffffffffffffffffff021916908373ffffffffffffffffffffffffffffffffffffffff16021790555060a0820151816005015590505061010060009054906101000a900473ffffffffffffffffffffffffffffffffffffffff1673ffffffffffffffffffffffffffffffffffffffff166323b872dd3330876040518463ffffffff1660e01b81526004016114c593929190612479565b600060405180830381600087803b1580156114df57600080fd5b505af11580156114f3573d6000803e3d6000fd5b505050508473ffffffffffffffffffffffffffffffffffffffff1684827f15b37799ba662a6dfc88818e7976ca1cd8dd4e695de2e1074d7eda65152556d8863330604051611543939291906128fc565b60405180910390a480915050611557611898565b9392505050565b6115666117b5565b600073ffffffffffffffffffffffffffffffffffffffff168173ffffffffffffffffffffffffffffffffffffffff16036115d5576040517f08c379a00000000000000000000000000000000000000000000000000000000081526004016115cc906129a5565b60405180910390fd5b6115de816118a2565b50565b60fd8060000154905081565b600061161b7f360894a13ba1a3210667c828492db98dca3e2076cc3735a920a3ca505d382bbc60001b611a4b565b60000160009054906101000a900473ffffffffffffffffffffffffffffffffffffffff16905090565b50565b6116737f4910fdfa16fed3260ed0e7147f7cc6da11a60208b5b9406d12a635614ffd914360001b611a55565b60000160009054906101000a900460ff16156116975761169283611a5f565b6117b0565b8273ffffffffffffffffffffffffffffffffffffffff166352d1902d6040518163ffffffff1660e01b8152600401602060405180830381865afa9250505080156116ff57506040513d601f19601f820116820180604052508101906116fc91906129f1565b60015b61173e576040517f08c379a000000000000000000000000000000000000000000000000000000000815260040161173590612a90565b60405180910390fd5b7f360894a13ba1a3210667c828492db98dca3e2076cc3735a920a3ca505d382bbc60001b81146117a3576040517f08c379a000000000000000000000000000000000000000000000000000000000815260040161179a90612b22565b60405180910390fd5b506117af838383611b18565b5b505050565b6117bd611b44565b73ffffffffffffffffffffffffffffffffffffffff166117db610d67565b73ffffffffffffffffffffffffffffffffffffffff1614611831576040517f08c379a000000000000000000000000000000000000000000000000000000000815260040161182890612b8e565b60405180910390fd5b565b600260655403611878576040517f08c379a000000000000000000000000000000000000000000000000000000000815260040161186f90612bfa565b60405180910390fd5b6002606581905550565b6001816000016000828254019250508190555050565b6001606581905550565b6000603360009054906101000a900473ffffffffffffffffffffffffffffffffffffffff16905081603360006101000a81548173ffffffffffffffffffffffffffffffffffffffff021916908373ffffffffffffffffffffffffffffffffffffffff1602179055508173ffffffffffffffffffffffffffffffffffffffff168173ffffffffffffffffffffffffffffffffffffffff167f8be0079c531659141344cd1fd0a4f28419497f9722a3daafe3b4186f6b6457e060405160405180910390a35050565b6000808273ffffffffffffffffffffffffffffffffffffffff163b119050919050565b600060019054906101000a900460ff166119da576040517f08c379a00000000000000000000000000000000000000000000000000000000081526004016119d190612c8c565b60405180910390fd5b6119e2611b4c565b565b600060019054906101000a900460ff16611a33576040517f08c379a0000000000000000000000000000000000000000000000000000000008152600401611a2a90612c8c565b60405180910390fd5b611a3b611bad565b565b600081600001549050919050565b6000819050919050565b6000819050919050565b611a6881611968565b611aa7576040517f08c379a0000000000000000000000000000000000000000000000000000000008152600401611a9e90612d1e565b60405180910390fd5b80611ad47f360894a13ba1a3210667c828492db98dca3e2076cc3735a920a3ca505d382bbc60001b611a4b565b60000160006101000a81548173ffffffffffffffffffffffffffffffffffffffff021916908373ffffffffffffffffffffffffffffffffffffffff16021790555050565b611b2183611c06565b600082511180611b2e5750805b15611b3f57611b3d8383611c55565b505b505050565b600033905090565b600060019054906101000a900460ff16611b9b576040517f08c379a0000000000000000000000000000000000000000000000000000000008152600401611b9290612c8c565b60405180910390fd5b611bab611ba6611b44565b6118a2565b565b600060019054906101000a900460ff16611bfc576040517f08c379a0000000000000000000000000000000000000000000000000000000008152600401611bf390612c8c565b60405180910390fd5b6001606581905550565b611c0f81611a5f565b8073ffffffffffffffffffffffffffffffffffffffff167fbc7cd75a20ee27fd9adebab32041f755214dbc6bffa90cc0225b39da2e5c2d3b60405160405180910390a250565b6060611c6083611968565b611c9f576040517f08c379a0000000000000000000000000000000000000000000000000000000008152600401611c9690612db0565b60405180910390fd5b6000808473ffffffffffffffffffffffffffffffffffffffff1684604051611cc79190612e41565b600060405180830381855af49150503d8060008114611d02576040519150601f19603f3d011682016040523d82523d6000602084013e611d07565b606091505b5091509150611d2f8282604051806060016040528060278152602001612ebf60279139611d39565b9250505092915050565b60608315611d4957829050611d54565b611d538383611d5b565b5b9392505050565b600082511115611d6e5781518083602001fd5b806040517f08c379a0000000000000000000000000000000000000000000000000000000008152600401611da29190612e9c565b60405180910390fd5b6000604051905090565b600080fd5b600080fd5b600073ffffffffffffffffffffffffffffffffffffffff82169050919050565b6000611dea82611dbf565b9050919050565b611dfa81611ddf565b8114611e0557600080fd5b50565b600081359050611e1781611df1565b92915050565b600060208284031215611e3357611e32611db5565b5b6000611e4184828501611e08565b91505092915050565b6000819050919050565b6000611e6f611e6a611e6584611dbf565b611e4a565b611dbf565b9050919050565b6000611e8182611e54565b9050919050565b6000611e9382611e76565b9050919050565b611ea381611e88565b82525050565b6000602082019050611ebe6000830184611e9a565b92915050565b600080fd5b600080fd5b6000601f19601f8301169050919050565b7f4e487b7100000000000000000000000000000000000000000000000000000000600052604160045260246000fd5b611f1782611ece565b810181811067ffffffffffffffff82111715611f3657611f35611edf565b5b80604052505050565b6000611f49611dab565b9050611f558282611f0e565b919050565b600067ffffffffffffffff821115611f7557611f74611edf565b5b611f7e82611ece565b9050602081019050919050565b82818337600083830152505050565b6000611fad611fa884611f5a565b611f3f565b905082815260208101848484011115611fc957611fc8611ec9565b5b611fd4848285611f8b565b509392505050565b600082601f830112611ff157611ff0611ec4565b5b8135612001848260208601611f9a565b91505092915050565b6000806040838503121561202157612020611db5565b5b600061202f85828601611e08565b925050602083013567ffffffffffffffff8111156120505761204f611dba565b5b61205c85828601611fdc565b9150509250929050565b6000819050919050565b61207981612066565b82525050565b60006020820190506120946000830184612070565b92915050565b6000819050919050565b6120ad8161209a565b81146120b857600080fd5b50565b6000813590506120ca816120a4565b92915050565b6000602082840312156120e6576120e5611db5565b5b60006120f4848285016120bb565b91505092915050565b6121068161209a565b82525050565b600060208201905061212160008301846120fd565b92915050565b61213081611ddf565b82525050565b600060208201905061214b6000830184612127565b92915050565b60008115159050919050565b61216681612151565b82525050565b6000602082019050612181600083018461215d565b92915050565b6000806000606084860312156121a05761219f611db5565b5b60006121ae86828701611e08565b93505060206121bf868287016120bb565b92505060406121d0868287016120bb565b9150509250925092565b600082825260208201905092915050565b7f46756e6374696f6e206d7573742062652063616c6c6564207468726f7567682060008201527f64656c656761746563616c6c0000000000000000000000000000000000000000602082015250565b6000612247602c836121da565b9150612252826121eb565b604082019050919050565b600060208201905081810360008301526122768161223a565b9050919050565b7f46756e6374696f6e206d7573742062652063616c6c6564207468726f7567682060008201527f6163746976652070726f78790000000000000000000000000000000000000000602082015250565b60006122d9602c836121da565b91506122e48261227d565b604082019050919050565b60006020820190508181036000830152612308816122cc565b9050919050565b7f555550535570677261646561626c653a206d757374206e6f742062652063616c60008201527f6c6564207468726f7567682064656c656761746563616c6c0000000000000000602082015250565b600061236b6038836121da565b91506123768261230f565b604082019050919050565b6000602082019050818103600083015261239a8161235e565b9050919050565b7f496e76616c6964206e667420636f6e7472616374206164647265737300000000600082015250565b60006123d7601c836121da565b91506123e2826123a1565b602082019050919050565b60006020820190508181036000830152612406816123ca565b9050919050565b7f42757965722063616e6e6f742062652073656c6c657200000000000000000000600082015250565b60006124436016836121da565b915061244e8261240d565b602082019050919050565b6000602082019050818103600083015261247281612436565b9050919050565b600060608201905061248e6000830186612127565b61249b6020830185612127565b6124a860408301846120fd565b949350505050565b7f6e6f74207375626d697420707269636500000000000000000000000000000000600082015250565b60006124e66010836121da565b91506124f1826124b0565b602082019050919050565b60006020820190508181036000830152612515816124d9565b9050919050565b7f496e697469616c697a61626c653a20636f6e747261637420697320616c72656160008201527f647920696e697469616c697a6564000000000000000000000000000000000000602082015250565b6000612578602e836121da565b91506125838261251c565b604082019050919050565b600060208201905081810360008301526125a78161256b565b9050919050565b6000819050919050565b600060ff82169050919050565b60006125e06125db6125d6846125ae565b611e4a565b6125b8565b9050919050565b6125f0816125c5565b82525050565b600060208201905061260b60008301846125e7565b92915050565b7f596f7520646f206e6f74206f776e2074686973204e4654000000000000000000600082015250565b60006126476017836121da565b915061265282612611565b602082019050919050565b600060208201905081810360008301526126768161263a565b9050919050565b7f496e76616c6964204e4654000000000000000000000000000000000000000000600082015250565b60006126b3600b836121da565b91506126be8261267d565b602082019050919050565b600060208201905081810360008301526126e2816126a6565b9050919050565b7f5072696365206d757374206265206174206c6561737420312077656900000000600082015250565b600061271f601c836121da565b915061272a826126e9565b602082019050919050565b6000602082019050818103600083015261274e81612712565b9050919050565b60008151905061276481611df1565b92915050565b6000602082840312156127805761277f611db5565b5b600061278e84828501612755565b91505092915050565b7f596f7520646f206e6f74206f776e207468697320746f6b656e00000000000000600082015250565b60006127cd6019836121da565b91506127d882612797565b602082019050919050565b600060208201905081810360008301526127fc816127c0565b9050919050565b7f54686973204e46542068617320616c7265616479206265656e206c6973746564600082015250565b60006128396020836121da565b915061284482612803565b602082019050919050565b600060208201905081810360008301526128688161282c565b9050919050565b7f496e76616c6964204e465420636f6e7472616374206164647265737300000000600082015250565b60006128a5601c836121da565b91506128b08261286f565b602082019050919050565b600060208201905081810360008301526128d481612898565b9050919050565b60006128e682611e76565b9050919050565b6128f6816128db565b82525050565b600060608201905061291160008301866120fd565b61291e60208301856128ed565b61292b60408301846128ed565b949350505050565b7f4f776e61626c653a206e6577206f776e657220697320746865207a65726f206160008201527f6464726573730000000000000000000000000000000000000000000000000000602082015250565b600061298f6026836121da565b915061299a82612933565b604082019050919050565b600060208201905081810360008301526129be81612982565b9050919050565b6129ce81612066565b81146129d957600080fd5b50565b6000815190506129eb816129c5565b92915050565b600060208284031215612a0757612a06611db5565b5b6000612a15848285016129dc565b91505092915050565b7f45524331393637557067726164653a206e657720696d706c656d656e7461746960008201527f6f6e206973206e6f742055555053000000000000000000000000000000000000602082015250565b6000612a7a602e836121da565b9150612a8582612a1e565b604082019050919050565b60006020820190508181036000830152612aa981612a6d565b9050919050565b7f45524331393637557067726164653a20756e737570706f727465642070726f7860008201527f6961626c65555549440000000000000000000000000000000000000000000000602082015250565b6000612b0c6029836121da565b9150612b1782612ab0565b604082019050919050565b60006020820190508181036000830152612b3b81612aff565b9050919050565b7f4f776e61626c653a2063616c6c6572206973206e6f7420746865206f776e6572600082015250565b6000612b786020836121da565b9150612b8382612b42565b602082019050919050565b60006020820190508181036000830152612ba781612b6b565b9050919050565b7f5265656e7472616e637947756172643a207265656e7472616e742063616c6c00600082015250565b6000612be4601f836121da565b9150612bef82612bae565b602082019050919050565b60006020820190508181036000830152612c1381612bd7565b9050919050565b7f496e697469616c697a61626c653a20636f6e7472616374206973206e6f74206960008201527f6e697469616c697a696e67000000000000000000000000000000000000000000602082015250565b6000612c76602b836121da565b9150612c8182612c1a565b604082019050919050565b60006020820190508181036000830152612ca581612c69565b9050919050565b7f455243313936373a206e657720696d706c656d656e746174696f6e206973206e60008201527f6f74206120636f6e747261637400000000000000000000000000000000000000602082015250565b6000612d08602d836121da565b9150612d1382612cac565b604082019050919050565b60006020820190508181036000830152612d3781612cfb565b9050919050565b7f416464726573733a2064656c65676174652063616c6c20746f206e6f6e2d636f60008201527f6e74726163740000000000000000000000000000000000000000000000000000602082015250565b6000612d9a6026836121da565b9150612da582612d3e565b604082019050919050565b60006020820190508181036000830152612dc981612d8d565b9050919050565b600081519050919050565b600081905092915050565b60005b83811015612e04578082015181840152602081019050612de9565b60008484015250505050565b6000612e1b82612dd0565b612e258185612ddb565b9350612e35818560208601612de6565b80840191505092915050565b6000612e4d8284612e10565b915081905092915050565b600081519050919050565b6000612e6e82612e58565b612e7881856121da565b9350612e88818560208601612de6565b612e9181611ece565b840191505092915050565b60006020820190508181036000830152612eb68184612e63565b90509291505056fe416464726573733a206c6f772d6c6576656c2064656c65676174652063616c6c206661696c6564a2646970667358221220ace9263841f0e2a00b2c67cebfccf54200208ce9d5f4d7c8a010fbd6646724d464736f6c63430008110033",
  "linkReferences": {},
  "deployedLinkReferences": {}
}