{
  "_format": "hh-sol-artifact-1",
  "contractName": "ImageToken",
  "sourceName": "contracts/ImageNFT.sol",
  "abi": [
    {
      "inputs": [],
      "stateMutability": "nonpayable",
      "type": "constructor"
    },
    {
      "anonymous": false,
      "inputs": [
        {
          "indexed": false,
          "internalType": "address",
          "name": "previousAdmin",
          "type": "address"
        },
        {
          "indexed": false,
          "internalType": "address",
          "name": "newAdmin",
          "type": "address"
        }
      ],
      "name": "AdminChanged",
      "type": "event"
    },
    {
      "anonymous": false,
      "inputs": [
        {
          "indexed": true,
          "internalType": "address",
          "name": "owner",
          "type": "address"
        },
        {
          "indexed": true,
          "internalType": "address",
          "name": "approved",
          "type": "address"
        },
        {
          "indexed": true,
          "internalType": "uint256",
          "name": "tokenId",
          "type": "uint256"
        }
      ],
      "name": "Approval",
      "type": "event"
    },
    {
      "anonymous": false,
      "inputs": [
        {
          "indexed": true,
          "internalType": "address",
          "name": "owner",
          "type": "address"
        },
        {
          "indexed": true,
          "internalType": "address",
          "name": "operator",
          "type": "address"
        },
        {
          "indexed": false,
          "internalType": "bool",
          "name": "approved",
          "type": "bool"
        }
      ],
      "name": "ApprovalForAll",
      "type": "event"
    },
    {
      "anonymous": false,
      "inputs": [
        {
          "indexed": true,
          "internalType": "address",
          "name": "beacon",
          "type": "address"
        }
      ],
      "name": "BeaconUpgraded",
      "type": "event"
    },
    {
      "anonymous": false,
      "inputs": [
        {
          "indexed": false,
          "internalType": "uint8",
          "name": "version",
          "type": "uint8"
        }
      ],
      "name": "Initialized",
      "type": "event"
    },
    {
      "anonymous": false,
      "inputs": [
        {
          "indexed": false,
          "internalType": "address",
          "name": "account",
          "type": "address"
        }
      ],
      "name": "Paused",
      "type": "event"
    },
    {
      "anonymous": false,
      "inputs": [
        {
          "indexed": true,
          "internalType": "bytes32",
          "name": "role",
          "type": "bytes32"
        },
        {
          "indexed": true,
          "internalType": "bytes32",
          "name": "previousAdminRole",
          "type": "bytes32"
        },
        {
          "indexed": true,
          "internalType": "bytes32",
          "name": "newAdminRole",
          "type": "bytes32"
        }
      ],
      "name": "RoleAdminChanged",
      "type": "event"
    },
    {
      "anonymous": false,
      "inputs": [
        {
          "indexed": true,
          "internalType": "bytes32",
          "name": "role",
          "type": "bytes32"
        },
        {
          "indexed": true,
          "internalType": "address",
          "name": "account",
          "type": "address"
        },
        {
          "indexed": true,
          "internalType": "address",
          "name": "sender",
          "type": "address"
        }
      ],
      "name": "RoleGranted",
      "type": "event"
    },
    {
      "anonymous": false,
      "inputs": [
        {
          "indexed": true,
          "internalType": "bytes32",
          "name": "role",
          "type": "bytes32"
        },
        {
          "indexed": true,
          "internalType": "address",
          "name": "account",
          "type": "address"
        },
        {
          "indexed": true,
          "internalType": "address",
          "name": "sender",
          "type": "address"
        }
      ],
      "name": "RoleRevoked",
      "type": "event"
    },
    {
      "anonymous": false,
      "inputs": [
        {
          "indexed": true,
          "internalType": "address",
          "name": "from",
          "type": "address"
        },
        {
          "indexed": true,
          "internalType": "address",
          "name": "to",
          "type": "address"
        },
        {
          "indexed": true,
          "internalType": "uint256",
          "name": "tokenId",
          "type": "uint256"
        }
      ],
      "name": "Transfer",
      "type": "event"
    },
    {
      "anonymous": false,
      "inputs": [
        {
          "indexed": false,
          "internalType": "address",
          "name": "account",
          "type": "address"
        }
      ],
      "name": "Unpaused",
      "type": "event"
    },
    {
      "anonymous": false,
      "inputs": [
        {
          "indexed": true,
          "internalType": "address",
          "name": "implementation",
          "type": "address"
        }
      ],
      "name": "Upgraded",
      "type": "event"
    },
    {
      "inputs": [],
      "name": "DEFAULT_ADMIN_ROLE",
      "outputs": [
        {
          "internalType": "bytes32",
          "name": "",
          "type": "bytes32"
        }
      ],
      "stateMutability": "view",
      "type": "function"
    },
    {
      "inputs": [],
      "name": "MINTER_ROLE",
      "outputs": [
        {
          "internalType": "bytes32",
          "name": "",
          "type": "bytes32"
        }
      ],
      "stateMutability": "view",
      "type": "function"
    },
    {
      "inputs": [],
      "name": "PAUSER_ROLE",
      "outputs": [
        {
          "internalType": "bytes32",
          "name": "",
          "type": "bytes32"
        }
      ],
      "stateMutability": "view",
      "type": "function"
    },
    {
      "inputs": [],
      "name": "UPGRADER_ROLE",
      "outputs": [
        {
          "internalType": "bytes32",
          "name": "",
          "type": "bytes32"
        }
      ],
      "stateMutability": "view",
      "type": "function"
    },
    {
      "inputs": [
        {
          "internalType": "address",
          "name": "to",
          "type": "address"
        },
        {
          "internalType": "uint256",
          "name": "tokenId",
          "type": "uint256"
        }
      ],
      "name": "approve",
      "outputs": [],
      "stateMutability": "nonpayable",
      "type": "function"
    },
    {
      "inputs": [
        {
          "internalType": "address",
          "name": "owner",
          "type": "address"
        }
      ],
      "name": "balanceOf",
      "outputs": [
        {
          "internalType": "uint256",
          "name": "",
          "type": "uint256"
        }
      ],
      "stateMutability": "view",
      "type": "function"
    },
    {
      "inputs": [
        {
          "internalType": "uint256",
          "name": "tokenId",
          "type": "uint256"
        }
      ],
      "name": "burn",
      "outputs": [],
      "stateMutability": "nonpayable",
      "type": "function"
    },
    {
      "inputs": [
        {
          "internalType": "uint256",
          "name": "tokenId",
          "type": "uint256"
        }
      ],
      "name": "getApproved",
      "outputs": [
        {
          "internalType": "address",
          "name": "",
          "type": "address"
        }
      ],
      "stateMutability": "view",
      "type": "function"
    },
    {
      "inputs": [
        {
          "internalType": "bytes32",
          "name": "role",
          "type": "bytes32"
        }
      ],
      "name": "getRoleAdmin",
      "outputs": [
        {
          "internalType": "bytes32",
          "name": "",
          "type": "bytes32"
        }
      ],
      "stateMutability": "view",
      "type": "function"
    },
    {
      "inputs": [
        {
          "internalType": "bytes32",
          "name": "role",
          "type": "bytes32"
        },
        {
          "internalType": "address",
          "name": "account",
          "type": "address"
        }
      ],
      "name": "grantRole",
      "outputs": [],
      "stateMutability": "nonpayable",
      "type": "function"
    },
    {
      "inputs": [
        {
          "internalType": "bytes32",
          "name": "role",
          "type": "bytes32"
        },
        {
          "internalType": "address",
          "name": "account",
          "type": "address"
        }
      ],
      "name": "hasRole",
      "outputs": [
        {
          "internalType": "bool",
          "name": "",
          "type": "bool"
        }
      ],
      "stateMutability": "view",
      "type": "function"
    },
    {
      "inputs": [],
      "name": "initialize",
      "outputs": [],
      "stateMutability": "nonpayable",
      "type": "function"
    },
    {
      "inputs": [
        {
          "internalType": "address",
          "name": "owner",
          "type": "address"
        },
        {
          "internalType": "address",
          "name": "operator",
          "type": "address"
        }
      ],
      "name": "isApprovedForAll",
      "outputs": [
        {
          "internalType": "bool",
          "name": "",
          "type": "bool"
        }
      ],
      "stateMutability": "view",
      "type": "function"
    },
    {
      "inputs": [],
      "name": "name",
      "outputs": [
        {
          "internalType": "string",
          "name": "",
          "type": "string"
        }
      ],
      "stateMutability": "view",
      "type": "function"
    },
    {
      "inputs": [
        {
          "internalType": "uint256",
          "name": "tokenId",
          "type": "uint256"
        }
      ],
      "name": "ownerOf",
      "outputs": [
        {
          "internalType": "address",
          "name": "",
          "type": "address"
        }
      ],
      "stateMutability": "view",
      "type": "function"
    },
    {
      "inputs": [],
      "name": "pause",
      "outputs": [],
      "stateMutability": "nonpayable",
      "type": "function"
    },
    {
      "inputs": [],
      "name": "paused",
      "outputs": [
        {
          "internalType": "bool",
          "name": "",
          "type": "bool"
        }
      ],
      "stateMutability": "view",
      "type": "function"
    },
    {
      "inputs": [],
      "name": "proxiableUUID",
      "outputs": [
        {
          "internalType": "bytes32",
          "name": "",
          "type": "bytes32"
        }
      ],
      "stateMutability": "view",
      "type": "function"
    },
    {
      "inputs": [
        {
          "internalType": "bytes32",
          "name": "role",
          "type": "bytes32"
        },
        {
          "internalType": "address",
          "name": "account",
          "type": "address"
        }
      ],
      "name": "renounceRole",
      "outputs": [],
      "stateMutability": "nonpayable",
      "type": "function"
    },
    {
      "inputs": [
        {
          "internalType": "bytes32",
          "name": "role",
          "type": "bytes32"
        },
        {
          "internalType": "address",
          "name": "account",
          "type": "address"
        }
      ],
      "name": "revokeRole",
      "outputs": [],
      "stateMutability": "nonpayable",
      "type": "function"
    },
    {
      "inputs": [
        {
          "internalType": "address",
          "name": "to",
          "type": "address"
        },
        {
          "internalType": "string",
          "name": "uri",
          "type": "string"
        }
      ],
      "name": "safeMint",
      "outputs": [
        {
          "internalType": "uint256",
          "name": "",
          "type": "uint256"
        }
      ],
      "stateMutability": "nonpayable",
      "type": "function"
    },
    {
      "inputs": [
        {
          "internalType": "address",
          "name": "from",
          "type": "address"
        },
        {
          "internalType": "address",
          "name": "to",
          "type": "address"
        },
        {
          "internalType": "uint256",
          "name": "tokenId",
          "type": "uint256"
        }
      ],
      "name": "safeTransferFrom",
      "outputs": [],
      "stateMutability": "nonpayable",
      "type": "function"
    },
    {
      "inputs": [
        {
          "internalType": "address",
          "name": "from",
          "type": "address"
        },
        {
          "internalType": "address",
          "name": "to",
          "type": "address"
        },
        {
          "internalType": "uint256",
          "name": "tokenId",
          "type": "uint256"
        },
        {
          "internalType": "bytes",
          "name": "data",
          "type": "bytes"
        }
      ],
      "name": "safeTransferFrom",
      "outputs": [],
      "stateMutability": "nonpayable",
      "type": "function"
    },
    {
      "inputs": [
        {
          "internalType": "address",
          "name": "operator",
          "type": "address"
        },
        {
          "internalType": "bool",
          "name": "approved",
          "type": "bool"
        }
      ],
      "name": "setApprovalForAll",
      "outputs": [],
      "stateMutability": "nonpayable",
      "type": "function"
    },
    {
      "inputs": [
        {
          "internalType": "bytes4",
          "name": "interfaceId",
          "type": "bytes4"
        }
      ],
      "name": "supportsInterface",
      "outputs": [
        {
          "internalType": "bool",
          "name": "",
          "type": "bool"
        }
      ],
      "stateMutability": "view",
      "type": "function"
    },
    {
      "inputs": [],
      "name": "symbol",
      "outputs": [
        {
          "internalType": "string",
          "name": "",
          "type": "string"
        }
      ],
      "stateMutability": "view",
      "type": "function"
    },
    {
      "inputs": [
        {
          "internalType": "uint256",
          "name": "index",
          "type": "uint256"
        }
      ],
      "name": "tokenByIndex",
      "outputs": [
        {
          "internalType": "uint256",
          "name": "",
          "type": "uint256"
        }
      ],
      "stateMutability": "view",
      "type": "function"
    },
    {
      "inputs": [
        {
          "internalType": "address",
          "name": "owner",
          "type": "address"
        },
        {
          "internalType": "uint256",
          "name": "index",
          "type": "uint256"
        }
      ],
      "name": "tokenOfOwnerByIndex",
      "outputs": [
        {
          "internalType": "uint256",
          "name": "",
          "type": "uint256"
        }
      ],
      "stateMutability": "view",
      "type": "function"
    },
    {
      "inputs": [
        {
          "internalType": "uint256",
          "name": "tokenId",
          "type": "uint256"
        }
      ],
      "name": "tokenURI",
      "outputs": [
        {
          "internalType": "string",
          "name": "",
          "type": "string"
        }
      ],
      "stateMutability": "view",
      "type": "function"
    },
    {
      "inputs": [],
      "name": "totalSupply",
      "outputs": [
        {
          "internalType": "uint256",
          "name": "",
          "type": "uint256"
        }
      ],
      "stateMutability": "view",
      "type": "function"
    },
    {
      "inputs": [
        {
          "internalType": "address",
          "name": "from",
          "type": "address"
        },
        {
          "internalType": "address",
          "name": "to",
          "type": "address"
        },
        {
          "internalType": "uint256",
          "name": "tokenId",
          "type": "uint256"
        }
      ],
      "name": "transferFrom",
      "outputs": [],
      "stateMutability": "nonpayable",
      "type": "function"
    },
    {
      "inputs": [],
      "name": "unpause",
      "outputs": [],
      "stateMutability": "nonpayable",
      "type": "function"
    },
    {
      "inputs": [
        {
          "internalType": "address",
          "name": "newImplementation",
          "type": "address"
        }
      ],
      "name": "upgradeTo",
      "outputs": [],
      "stateMutability": "nonpayable",
      "type": "function"
    },
    {
      "inputs": [
        {
          "internalType": "address",
          "name": "newImplementation",
          "type": "address"
        },
        {
          "internalType": "bytes",
          "name": "data",
          "type": "bytes"
        }
      ],
      "name": "upgradeToAndCall",
      "outputs": [],
      "stateMutability": "payable",
      "type": "function"
    }
  ],
  "bytecode": "0x60a06040523073ffffffffffffffffffffffffffffffffffffffff1660809073ffffffffffffffffffffffffffffffffffffffff168152503480156200004457600080fd5b50620000556200005b60201b60201c565b62000206565b600060019054906101000a900460ff1615620000ae576040517f08c379a0000000000000000000000000000000000000000000000000000000008152600401620000a590620001a9565b60405180910390fd5b60ff801660008054906101000a900460ff1660ff161015620001205760ff6000806101000a81548160ff021916908360ff1602179055507f7f26b83ff96e1f2b6a682f133852f6798a09c465da95921460cefb384740249860ff604051620001179190620001e9565b60405180910390a15b565b600082825260208201905092915050565b7f496e697469616c697a61626c653a20636f6e747261637420697320696e69746960008201527f616c697a696e6700000000000000000000000000000000000000000000000000602082015250565b60006200019160278362000122565b91506200019e8262000133565b604082019050919050565b60006020820190508181036000830152620001c48162000182565b9050919050565b600060ff82169050919050565b620001e381620001cb565b82525050565b6000602082019050620002006000830184620001d8565b92915050565b608051615d136200023e60003960008181610bf501528181610c8301528181610e2e01528181610ebc0152610fdd0152615d136000f3fe6080604052600436106101f95760003560e01c80635c975abb1161010d578063a22cb465116100a0578063d53913931161006f578063d539139314610734578063d547741f1461075f578063e63ab1e914610788578063e985e9c5146107b3578063f72c0d8b146107f0576101f9565b8063a22cb46514610668578063b88d4fde14610691578063c87b56dd146106ba578063d204c45e146106f7576101f9565b80638456cb59116100dc5780638456cb59146105be57806391d14854146105d557806395d89b4114610612578063a217fddf1461063d576101f9565b80635c975abb146105025780636352211e1461052d57806370a082311461056a5780638129fc1c146105a7576101f9565b80632f745c591161019057806342842e0e1161015f57806342842e0e1461042c57806342966c68146104555780634f1ef2861461047e5780634f6ccce71461049a57806352d1902d146104d7576101f9565b80632f745c591461038657806336568abe146103c35780633659cfe6146103ec5780633f4ba83a14610415576101f9565b806318160ddd116101cc57806318160ddd146102cc57806323b872dd146102f7578063248a9ca3146103205780632f2ff15d1461035d576101f9565b806301ffc9a7146101fe57806306fdde031461023b578063081812fc14610266578063095ea7b3146102a3575b600080fd5b34801561020a57600080fd5b5061022560048036038101906102209190613eda565b61081b565b6040516102329190613f22565b60405180910390f35b34801561024757600080fd5b5061025061082d565b60405161025d9190613fcd565b60405180910390f35b34801561027257600080fd5b5061028d60048036038101906102889190614025565b6108bf565b60405161029a9190614093565b60405180910390f35b3480156102af57600080fd5b506102ca60048036038101906102c591906140da565b610905565b005b3480156102d857600080fd5b506102e1610a1c565b6040516102ee9190614129565b60405180910390f35b34801561030357600080fd5b5061031e60048036038101906103199190614144565b610a29565b005b34801561032c57600080fd5b50610347600480360381019061034291906141cd565b610a89565b6040516103549190614209565b60405180910390f35b34801561036957600080fd5b50610384600480360381019061037f9190614224565b610aaa565b005b34801561039257600080fd5b506103ad60048036038101906103a891906140da565b610acb565b6040516103ba9190614129565b60405180910390f35b3480156103cf57600080fd5b506103ea60048036038101906103e59190614224565b610b70565b005b3480156103f857600080fd5b50610413600480360381019061040e9190614264565b610bf3565b005b34801561042157600080fd5b5061042a610d7b565b005b34801561043857600080fd5b50610453600480360381019061044e9190614144565b610db0565b005b34801561046157600080fd5b5061047c60048036038101906104779190614025565b610dd0565b005b610498600480360381019061049391906143c6565b610e2c565b005b3480156104a657600080fd5b506104c160048036038101906104bc9190614025565b610f68565b6040516104ce9190614129565b60405180910390f35b3480156104e357600080fd5b506104ec610fd9565b6040516104f99190614209565b60405180910390f35b34801561050e57600080fd5b50610517611092565b6040516105249190613f22565b60405180910390f35b34801561053957600080fd5b50610554600480360381019061054f9190614025565b6110a9565b6040516105619190614093565b60405180910390f35b34801561057657600080fd5b50610591600480360381019061058c9190614264565b61112f565b60405161059e9190614129565b60405180910390f35b3480156105b357600080fd5b506105bc6111e6565b005b3480156105ca57600080fd5b506105d3611421565b005b3480156105e157600080fd5b506105fc60048036038101906105f79190614224565b611456565b6040516106099190613f22565b60405180910390f35b34801561061e57600080fd5b506106276114c2565b6040516106349190613fcd565b60405180910390f35b34801561064957600080fd5b50610652611554565b60405161065f9190614209565b60405180910390f35b34801561067457600080fd5b5061068f600480360381019061068a919061444e565b61155b565b005b34801561069d57600080fd5b506106b860048036038101906106b3919061448e565b611571565b005b3480156106c657600080fd5b506106e160048036038101906106dc9190614025565b6115d3565b6040516106ee9190613fcd565b60405180910390f35b34801561070357600080fd5b5061071e600480360381019061071991906145b2565b6115e5565b60405161072b9190614129565b60405180910390f35b34801561074057600080fd5b5061074961161b565b6040516107569190614209565b60405180910390f35b34801561076b57600080fd5b5061078660048036038101906107819190614224565b61163f565b005b34801561079457600080fd5b5061079d611660565b6040516107aa9190614209565b60405180910390f35b3480156107bf57600080fd5b506107da60048036038101906107d5919061460e565b611684565b6040516107e79190613f22565b60405180910390f35b3480156107fc57600080fd5b50610805611718565b6040516108129190614209565b60405180910390f35b60006108268261173c565b9050919050565b60606065805461083c9061467d565b80601f01602080910402602001604051908101604052809291908181526020018280546108689061467d565b80156108b55780601f1061088a576101008083540402835291602001916108b5565b820191906000526020600020905b81548152906001019060200180831161089857829003601f168201915b5050505050905090565b60006108ca826117b6565b6069600083815260200190815260200160002060009054906101000a900473ffffffffffffffffffffffffffffffffffffffff169050919050565b6000610910826110a9565b90508073ffffffffffffffffffffffffffffffffffffffff168373ffffffffffffffffffffffffffffffffffffffff1603610980576040517f08c379a000000000000000000000000000000000000000000000000000000000815260040161097790614720565b60405180910390fd5b8073ffffffffffffffffffffffffffffffffffffffff1661099f611801565b73ffffffffffffffffffffffffffffffffffffffff1614806109ce57506109cd816109c8611801565b611684565b5b610a0d576040517f08c379a0000000000000000000000000000000000000000000000000000000008152600401610a04906147b2565b60405180910390fd5b610a178383611809565b505050565b6000609980549050905090565b610a3a610a34611801565b826118c2565b610a79576040517f08c379a0000000000000000000000000000000000000000000000000000000008152600401610a7090614844565b60405180910390fd5b610a84838383611957565b505050565b600061012d6000838152602001908152602001600020600101549050919050565b610ab382610a89565b610abc81611c50565b610ac68383611c64565b505050565b6000610ad68361112f565b8210610b17576040517f08c379a0000000000000000000000000000000000000000000000000000000008152600401610b0e906148d6565b60405180910390fd5b609760008473ffffffffffffffffffffffffffffffffffffffff1673ffffffffffffffffffffffffffffffffffffffff168152602001908152602001600020600083815260200190815260200160002054905092915050565b610b78611801565b73ffffffffffffffffffffffffffffffffffffffff168173ffffffffffffffffffffffffffffffffffffffff1614610be5576040517f08c379a0000000000000000000000000000000000000000000000000000000008152600401610bdc90614968565b60405180910390fd5b610bef8282611d46565b5050565b7f000000000000000000000000000000000000000000000000000000000000000073ffffffffffffffffffffffffffffffffffffffff163073ffffffffffffffffffffffffffffffffffffffff1603610c81576040517f08c379a0000000000000000000000000000000000000000000000000000000008152600401610c78906149fa565b60405180910390fd5b7f000000000000000000000000000000000000000000000000000000000000000073ffffffffffffffffffffffffffffffffffffffff16610cc0611e29565b73ffffffffffffffffffffffffffffffffffffffff1614610d16576040517f08c379a0000000000000000000000000000000000000000000000000000000008152600401610d0d90614a8c565b60405180910390fd5b610d1f81611e80565b610d7881600067ffffffffffffffff811115610d3e57610d3d61429b565b5b6040519080825280601f01601f191660200182016040528015610d705781602001600182028036833780820191505090505b506000611eae565b50565b7f65d7a28e3265b37a6474929f336521b332c1681b933f6cb9f3376673440d862a610da581611c50565b610dad61201c565b50565b610dcb83838360405180602001604052806000815250611571565b505050565b610de1610ddb611801565b826118c2565b610e20576040517f08c379a0000000000000000000000000000000000000000000000000000000008152600401610e1790614844565b60405180910390fd5b610e298161207f565b50565b7f000000000000000000000000000000000000000000000000000000000000000073ffffffffffffffffffffffffffffffffffffffff163073ffffffffffffffffffffffffffffffffffffffff1603610eba576040517f08c379a0000000000000000000000000000000000000000000000000000000008152600401610eb1906149fa565b60405180910390fd5b7f000000000000000000000000000000000000000000000000000000000000000073ffffffffffffffffffffffffffffffffffffffff16610ef9611e29565b73ffffffffffffffffffffffffffffffffffffffff1614610f4f576040517f08c379a0000000000000000000000000000000000000000000000000000000008152600401610f4690614a8c565b60405180910390fd5b610f5882611e80565b610f6482826001611eae565b5050565b6000610f72610a1c565b8210610fb3576040517f08c379a0000000000000000000000000000000000000000000000000000000008152600401610faa90614b1e565b60405180910390fd5b60998281548110610fc757610fc6614b3e565b5b90600052602060002001549050919050565b60007f000000000000000000000000000000000000000000000000000000000000000073ffffffffffffffffffffffffffffffffffffffff163073ffffffffffffffffffffffffffffffffffffffff1614611069576040517f08c379a000000000000000000000000000000000000000000000000000000000815260040161106090614bdf565b60405180910390fd5b7f360894a13ba1a3210667c828492db98dca3e2076cc3735a920a3ca505d382bbc60001b905090565b600060fb60009054906101000a900460ff16905090565b6000806110b58361208b565b9050600073ffffffffffffffffffffffffffffffffffffffff168173ffffffffffffffffffffffffffffffffffffffff1603611126576040517f08c379a000000000000000000000000000000000000000000000000000000000815260040161111d90614c4b565b60405180910390fd5b80915050919050565b60008073ffffffffffffffffffffffffffffffffffffffff168273ffffffffffffffffffffffffffffffffffffffff160361119f576040517f08c379a000000000000000000000000000000000000000000000000000000000815260040161119690614cdd565b60405180910390fd5b606860008373ffffffffffffffffffffffffffffffffffffffff1673ffffffffffffffffffffffffffffffffffffffff168152602001908152602001600020549050919050565b60008060019054906101000a900460ff161590508080156112175750600160008054906101000a900460ff1660ff16105b806112445750611226306120c8565b1580156112435750600160008054906101000a900460ff1660ff16145b5b611283576040517f08c379a000000000000000000000000000000000000000000000000000000000815260040161127a90614d6f565b60405180910390fd5b60016000806101000a81548160ff021916908360ff16021790555080156112c0576001600060016101000a81548160ff0219169083151502179055505b6113346040518060400160405280600a81526020017f496d616765546f6b656e000000000000000000000000000000000000000000008152506040518060400160405280600481526020017f494d544b000000000000000000000000000000000000000000000000000000008152506120eb565b61133c612148565b611344612199565b61134c6121ea565b611354612243565b61135c612294565b6113646122e5565b6113716000801b33611c64565b61139b7f65d7a28e3265b37a6474929f336521b332c1681b933f6cb9f3376673440d862a33611c64565b6113c57f189ab7a9244df0848122154315af71fe140f3db0fe014031783b0946b8c9d2e333611c64565b801561141e5760008060016101000a81548160ff0219169083151502179055507f7f26b83ff96e1f2b6a682f133852f6798a09c465da95921460cefb384740249860016040516114159190614de1565b60405180910390a15b50565b7f65d7a28e3265b37a6474929f336521b332c1681b933f6cb9f3376673440d862a61144b81611c50565b611453612336565b50565b600061012d600084815260200190815260200160002060000160008373ffffffffffffffffffffffffffffffffffffffff1673ffffffffffffffffffffffffffffffffffffffff16815260200190815260200160002060009054906101000a900460ff16905092915050565b6060606680546114d19061467d565b80601f01602080910402602001604051908101604052809291908181526020018280546114fd9061467d565b801561154a5780601f1061151f5761010080835404028352916020019161154a565b820191906000526020600020905b81548152906001019060200180831161152d57829003601f168201915b5050505050905090565b6000801b81565b61156d611566611801565b8383612399565b5050565b61158261157c611801565b836118c2565b6115c1576040517f08c379a00000000000000000000000000000000000000000000000000000000081526004016115b890614844565b60405180910390fd5b6115cd84848484612505565b50505050565b60606115de82612561565b9050919050565b6000806115f36101f5612673565b90506116006101f5612681565b61160a8482612697565b61161481846126b5565b5092915050565b7f9f2df0fed2c77648de5860a4cc508cd0818c85b8b8a1ab4ceeef8d981c8956a681565b61164882610a89565b61165181611c50565b61165b8383611d46565b505050565b7f65d7a28e3265b37a6474929f336521b332c1681b933f6cb9f3376673440d862a81565b6000606a60008473ffffffffffffffffffffffffffffffffffffffff1673ffffffffffffffffffffffffffffffffffffffff16815260200190815260200160002060008373ffffffffffffffffffffffffffffffffffffffff1673ffffffffffffffffffffffffffffffffffffffff16815260200190815260200160002060009054906101000a900460ff16905092915050565b7f189ab7a9244df0848122154315af71fe140f3db0fe014031783b0946b8c9d2e381565b60007f7965db0b000000000000000000000000000000000000000000000000000000007bffffffffffffffffffffffffffffffffffffffffffffffffffffffff1916827bffffffffffffffffffffffffffffffffffffffffffffffffffffffff191614806117af57506117ae82612722565b5b9050919050565b6117bf8161279c565b6117fe576040517f08c379a00000000000000000000000000000000000000000000000000000000081526004016117f590614c4b565b60405180910390fd5b50565b600033905090565b816069600083815260200190815260200160002060006101000a81548173ffffffffffffffffffffffffffffffffffffffff021916908373ffffffffffffffffffffffffffffffffffffffff160217905550808273ffffffffffffffffffffffffffffffffffffffff1661187c836110a9565b73ffffffffffffffffffffffffffffffffffffffff167f8c5be1e5ebec7d5bd14f71427d1e84f3dd0314c0f7b2291e5b200ac8c7c3b92560405160405180910390a45050565b6000806118ce836110a9565b90508073ffffffffffffffffffffffffffffffffffffffff168473ffffffffffffffffffffffffffffffffffffffff161480611910575061190f8185611684565b5b8061194e57508373ffffffffffffffffffffffffffffffffffffffff16611936846108bf565b73ffffffffffffffffffffffffffffffffffffffff16145b91505092915050565b8273ffffffffffffffffffffffffffffffffffffffff16611977826110a9565b73ffffffffffffffffffffffffffffffffffffffff16146119cd576040517f08c379a00000000000000000000000000000000000000000000000000000000081526004016119c490614e6e565b60405180910390fd5b600073ffffffffffffffffffffffffffffffffffffffff168273ffffffffffffffffffffffffffffffffffffffff1603611a3c576040517f08c379a0000000000000000000000000000000000000000000000000000000008152600401611a3390614f00565b60405180910390fd5b611a4983838360016127dd565b8273ffffffffffffffffffffffffffffffffffffffff16611a69826110a9565b73ffffffffffffffffffffffffffffffffffffffff1614611abf576040517f08c379a0000000000000000000000000000000000000000000000000000000008152600401611ab690614e6e565b60405180910390fd5b6069600082815260200190815260200160002060006101000a81549073ffffffffffffffffffffffffffffffffffffffff02191690556001606860008573ffffffffffffffffffffffffffffffffffffffff1673ffffffffffffffffffffffffffffffffffffffff168152602001908152602001600020600082825403925050819055506001606860008473ffffffffffffffffffffffffffffffffffffffff1673ffffffffffffffffffffffffffffffffffffffff16815260200190815260200160002060008282540192505081905550816067600083815260200190815260200160002060006101000a81548173ffffffffffffffffffffffffffffffffffffffff021916908373ffffffffffffffffffffffffffffffffffffffff160217905550808273ffffffffffffffffffffffffffffffffffffffff168473ffffffffffffffffffffffffffffffffffffffff167fddf252ad1be2c89b69c2b068fc378daa952ba7f163c4a11628f55a4df523b3ef60405160405180910390a4611c4b83838360016127f7565b505050565b611c6181611c5c611801565b6127fd565b50565b611c6e8282611456565b611d4257600161012d600084815260200190815260200160002060000160008373ffffffffffffffffffffffffffffffffffffffff1673ffffffffffffffffffffffffffffffffffffffff16815260200190815260200160002060006101000a81548160ff021916908315150217905550611ce7611801565b73ffffffffffffffffffffffffffffffffffffffff168173ffffffffffffffffffffffffffffffffffffffff16837f2f8788117e7eff1d82e926ec794901d17c78024a50270940304540a733656f0d60405160405180910390a45b5050565b611d508282611456565b15611e2557600061012d600084815260200190815260200160002060000160008373ffffffffffffffffffffffffffffffffffffffff1673ffffffffffffffffffffffffffffffffffffffff16815260200190815260200160002060006101000a81548160ff021916908315150217905550611dca611801565b73ffffffffffffffffffffffffffffffffffffffff168173ffffffffffffffffffffffffffffffffffffffff16837ff6391f5c32d9c69d2a47ea670b442974b53935d1edc7fd64eb21e047a839171b60405160405180910390a45b5050565b6000611e577f360894a13ba1a3210667c828492db98dca3e2076cc3735a920a3ca505d382bbc60001b612882565b60000160009054906101000a900473ffffffffffffffffffffffffffffffffffffffff16905090565b7f189ab7a9244df0848122154315af71fe140f3db0fe014031783b0946b8c9d2e3611eaa81611c50565b5050565b611eda7f4910fdfa16fed3260ed0e7147f7cc6da11a60208b5b9406d12a635614ffd914360001b61288c565b60000160009054906101000a900460ff1615611efe57611ef983612896565b612017565b8273ffffffffffffffffffffffffffffffffffffffff166352d1902d6040518163ffffffff1660e01b8152600401602060405180830381865afa925050508015611f6657506040513d601f19601f82011682018060405250810190611f639190614f35565b60015b611fa5576040517f08c379a0000000000000000000000000000000000000000000000000000000008152600401611f9c90614fd4565b60405180910390fd5b7f360894a13ba1a3210667c828492db98dca3e2076cc3735a920a3ca505d382bbc60001b811461200a576040517f08c379a000000000000000000000000000000000000000000000000000000000815260040161200190615066565b60405180910390fd5b5061201683838361294f565b5b505050565b61202461297b565b600060fb60006101000a81548160ff0219169083151502179055507f5db9ee0a495bf2e6ff9c91a7834c1ba4fdd244a5e8aa4e537bd38aeae4b073aa612068611801565b6040516120759190614093565b60405180910390a1565b612088816129c4565b50565b60006067600083815260200190815260200160002060009054906101000a900473ffffffffffffffffffffffffffffffffffffffff169050919050565b6000808273ffffffffffffffffffffffffffffffffffffffff163b119050919050565b600060019054906101000a900460ff1661213a576040517f08c379a0000000000000000000000000000000000000000000000000000000008152600401612131906150f8565b60405180910390fd5b6121448282612a17565b5050565b600060019054906101000a900460ff16612197576040517f08c379a000000000000000000000000000000000000000000000000000000000815260040161218e906150f8565b60405180910390fd5b565b600060019054906101000a900460ff166121e8576040517f08c379a00000000000000000000000000000000000000000000000000000000081526004016121df906150f8565b60405180910390fd5b565b600060019054906101000a900460ff16612239576040517f08c379a0000000000000000000000000000000000000000000000000000000008152600401612230906150f8565b60405180910390fd5b612241612a8a565b565b600060019054906101000a900460ff16612292576040517f08c379a0000000000000000000000000000000000000000000000000000000008152600401612289906150f8565b60405180910390fd5b565b600060019054906101000a900460ff166122e3576040517f08c379a00000000000000000000000000000000000000000000000000000000081526004016122da906150f8565b60405180910390fd5b565b600060019054906101000a900460ff16612334576040517f08c379a000000000000000000000000000000000000000000000000000000000815260040161232b906150f8565b60405180910390fd5b565b61233e612af6565b600160fb60006101000a81548160ff0219169083151502179055507f62e78cea01bee320cd4e420270b5ea74000d11b0c9f74754ebdbfc544b05a258612382611801565b60405161238f9190614093565b60405180910390a1565b8173ffffffffffffffffffffffffffffffffffffffff168373ffffffffffffffffffffffffffffffffffffffff1603612407576040517f08c379a00000000000000000000000000000000000000000000000000000000081526004016123fe90615164565b60405180910390fd5b80606a60008573ffffffffffffffffffffffffffffffffffffffff1673ffffffffffffffffffffffffffffffffffffffff16815260200190815260200160002060008473ffffffffffffffffffffffffffffffffffffffff1673ffffffffffffffffffffffffffffffffffffffff16815260200190815260200160002060006101000a81548160ff0219169083151502179055508173ffffffffffffffffffffffffffffffffffffffff168373ffffffffffffffffffffffffffffffffffffffff167f17307eab39ab6107e8899845ad3d59bd9653f200f220920489ca2b5937696c31836040516124f89190613f22565b60405180910390a3505050565b612510848484611957565b61251c84848484612b40565b61255b576040517f08c379a0000000000000000000000000000000000000000000000000000000008152600401612552906151f6565b60405180910390fd5b50505050565b606061256c826117b6565b600060c96000848152602001908152602001600020805461258c9061467d565b80601f01602080910402602001604051908101604052809291908181526020018280546125b89061467d565b80156126055780601f106125da57610100808354040283529160200191612605565b820191906000526020600020905b8154815290600101906020018083116125e857829003601f168201915b505050505090506000612616612cc7565b9050600081510361262b57819250505061266e565b600082511115612660578082604051602001612648929190615252565b6040516020818303038152906040529250505061266e565b61266984612cde565b925050505b919050565b600081600001549050919050565b6001816000016000828254019250508190555050565b6126b1828260405180602001604052806000815250612d46565b5050565b6126be8261279c565b6126fd576040517f08c379a00000000000000000000000000000000000000000000000000000000081526004016126f4906152e8565b60405180910390fd5b8060c96000848152602001908152602001600020908161271d91906154aa565b505050565b60007f780e9d63000000000000000000000000000000000000000000000000000000007bffffffffffffffffffffffffffffffffffffffffffffffffffffffff1916827bffffffffffffffffffffffffffffffffffffffffffffffffffffffff19161480612795575061279482612da1565b5b9050919050565b60008073ffffffffffffffffffffffffffffffffffffffff166127be8361208b565b73ffffffffffffffffffffffffffffffffffffffff1614159050919050565b6127e5612af6565b6127f184848484612e83565b50505050565b50505050565b6128078282611456565b61287e5761281481612fe1565b6128228360001c602061300e565b604051602001612833929190615614565b6040516020818303038152906040526040517f08c379a00000000000000000000000000000000000000000000000000000000081526004016128759190613fcd565b60405180910390fd5b5050565b6000819050919050565b6000819050919050565b61289f816120c8565b6128de576040517f08c379a00000000000000000000000000000000000000000000000000000000081526004016128d5906156c0565b60405180910390fd5b8061290b7f360894a13ba1a3210667c828492db98dca3e2076cc3735a920a3ca505d382bbc60001b612882565b60000160006101000a81548173ffffffffffffffffffffffffffffffffffffffff021916908373ffffffffffffffffffffffffffffffffffffffff16021790555050565b6129588361324a565b6000825111806129655750805b15612976576129748383613299565b505b505050565b612983611092565b6129c2576040517f08c379a00000000000000000000000000000000000000000000000000000000081526004016129b99061572c565b60405180910390fd5b565b6129cd8161337d565b600060c9600083815260200190815260200160002080546129ed9061467d565b905014612a145760c960008281526020019081526020016000206000612a139190613e11565b5b50565b600060019054906101000a900460ff16612a66576040517f08c379a0000000000000000000000000000000000000000000000000000000008152600401612a5d906150f8565b60405180910390fd5b8160659081612a7591906154aa565b508060669081612a8591906154aa565b505050565b600060019054906101000a900460ff16612ad9576040517f08c379a0000000000000000000000000000000000000000000000000000000008152600401612ad0906150f8565b60405180910390fd5b600060fb60006101000a81548160ff021916908315150217905550565b612afe611092565b15612b3e576040517f08c379a0000000000000000000000000000000000000000000000000000000008152600401612b3590615798565b60405180910390fd5b565b6000612b618473ffffffffffffffffffffffffffffffffffffffff166120c8565b15612cba578373ffffffffffffffffffffffffffffffffffffffff1663150b7a02612b8a611801565b8786866040518563ffffffff1660e01b8152600401612bac949392919061580d565b6020604051808303816000875af1925050508015612be857506040513d601f19601f82011682018060405250810190612be5919061586e565b60015b612c6a573d8060008114612c18576040519150601f19603f3d011682016040523d82523d6000602084013e612c1d565b606091505b506000815103612c62576040517f08c379a0000000000000000000000000000000000000000000000000000000008152600401612c59906151f6565b60405180910390fd5b805181602001fd5b63150b7a0260e01b7bffffffffffffffffffffffffffffffffffffffffffffffffffffffff1916817bffffffffffffffffffffffffffffffffffffffffffffffffffffffff191614915050612cbf565b600190505b949350505050565b606060405180602001604052806000815250905090565b6060612ce9826117b6565b6000612cf3612cc7565b90506000815111612d135760405180602001604052806000815250612d3e565b80612d1d846134cb565b604051602001612d2e929190615252565b6040516020818303038152906040525b915050919050565b612d508383613599565b612d5d6000848484612b40565b612d9c576040517f08c379a0000000000000000000000000000000000000000000000000000000008152600401612d93906151f6565b60405180910390fd5b505050565b60007f80ac58cd000000000000000000000000000000000000000000000000000000007bffffffffffffffffffffffffffffffffffffffffffffffffffffffff1916827bffffffffffffffffffffffffffffffffffffffffffffffffffffffff19161480612e6c57507f5b5e139f000000000000000000000000000000000000000000000000000000007bffffffffffffffffffffffffffffffffffffffffffffffffffffffff1916827bffffffffffffffffffffffffffffffffffffffffffffffffffffffff1916145b80612e7c5750612e7b826137b6565b5b9050919050565b612e8f84848484613820565b6001811115612ed3576040517f08c379a0000000000000000000000000000000000000000000000000000000008152600401612eca9061590d565b60405180910390fd5b6000829050600073ffffffffffffffffffffffffffffffffffffffff168573ffffffffffffffffffffffffffffffffffffffff1603612f1a57612f1581613946565b612f59565b8373ffffffffffffffffffffffffffffffffffffffff168573ffffffffffffffffffffffffffffffffffffffff1614612f5857612f57858261398f565b5b5b600073ffffffffffffffffffffffffffffffffffffffff168473ffffffffffffffffffffffffffffffffffffffff1603612f9b57612f9681613afc565b612fda565b8473ffffffffffffffffffffffffffffffffffffffff168473ffffffffffffffffffffffffffffffffffffffff1614612fd957612fd88482613bcd565b5b5b5050505050565b60606130078273ffffffffffffffffffffffffffffffffffffffff16601460ff1661300e565b9050919050565b606060006002836002613021919061595c565b61302b919061599e565b67ffffffffffffffff8111156130445761304361429b565b5b6040519080825280601f01601f1916602001820160405280156130765781602001600182028036833780820191505090505b5090507f3000000000000000000000000000000000000000000000000000000000000000816000815181106130ae576130ad614b3e565b5b60200101907effffffffffffffffffffffffffffffffffffffffffffffffffffffffffffff1916908160001a9053507f78000000000000000000000000000000000000000000000000000000000000008160018151811061311257613111614b3e565b5b60200101907effffffffffffffffffffffffffffffffffffffffffffffffffffffffffffff1916908160001a90535060006001846002613152919061595c565b61315c919061599e565b90505b60018111156131fc577f3031323334353637383961626364656600000000000000000000000000000000600f86166010811061319e5761319d614b3e565b5b1a60f81b8282815181106131b5576131b4614b3e565b5b60200101907effffffffffffffffffffffffffffffffffffffffffffffffffffffffffffff1916908160001a905350600485901c9450806131f5906159d2565b905061315f565b5060008414613240576040517f08c379a000000000000000000000000000000000000000000000000000000000815260040161323790615a47565b60405180910390fd5b8091505092915050565b61325381612896565b8073ffffffffffffffffffffffffffffffffffffffff167fbc7cd75a20ee27fd9adebab32041f755214dbc6bffa90cc0225b39da2e5c2d3b60405160405180910390a250565b60606132a4836120c8565b6132e3576040517f08c379a00000000000000000000000000000000000000000000000000000000081526004016132da90615ad9565b60405180910390fd5b6000808473ffffffffffffffffffffffffffffffffffffffff168460405161330b9190615b35565b600060405180830381855af49150503d8060008114613346576040519150601f19603f3d011682016040523d82523d6000602084013e61334b565b606091505b50915091506133738282604051806060016040528060278152602001615cb760279139613c4c565b9250505092915050565b6000613388826110a9565b90506133988160008460016127dd565b6133a1826110a9565b90506069600083815260200190815260200160002060006101000a81549073ffffffffffffffffffffffffffffffffffffffff02191690556001606860008373ffffffffffffffffffffffffffffffffffffffff1673ffffffffffffffffffffffffffffffffffffffff168152602001908152602001600020600082825403925050819055506067600083815260200190815260200160002060006101000a81549073ffffffffffffffffffffffffffffffffffffffff021916905581600073ffffffffffffffffffffffffffffffffffffffff168273ffffffffffffffffffffffffffffffffffffffff167fddf252ad1be2c89b69c2b068fc378daa952ba7f163c4a11628f55a4df523b3ef60405160405180910390a46134c78160008460016127f7565b5050565b6060600060016134da84613c6e565b01905060008167ffffffffffffffff8111156134f9576134f861429b565b5b6040519080825280601f01601f19166020018201604052801561352b5781602001600182028036833780820191505090505b509050600082602001820190505b60011561358e578080600190039150507f3031323334353637383961626364656600000000000000000000000000000000600a86061a8153600a858161358257613581615b4c565b5b04945060008503613539575b819350505050919050565b600073ffffffffffffffffffffffffffffffffffffffff168273ffffffffffffffffffffffffffffffffffffffff1603613608576040517f08c379a00000000000000000000000000000000000000000000000000000000081526004016135ff90615bc7565b60405180910390fd5b6136118161279c565b15613651576040517f08c379a000000000000000000000000000000000000000000000000000000000815260040161364890615c33565b60405180910390fd5b61365f6000838360016127dd565b6136688161279c565b156136a8576040517f08c379a000000000000000000000000000000000000000000000000000000000815260040161369f90615c33565b60405180910390fd5b6001606860008473ffffffffffffffffffffffffffffffffffffffff1673ffffffffffffffffffffffffffffffffffffffff16815260200190815260200160002060008282540192505081905550816067600083815260200190815260200160002060006101000a81548173ffffffffffffffffffffffffffffffffffffffff021916908373ffffffffffffffffffffffffffffffffffffffff160217905550808273ffffffffffffffffffffffffffffffffffffffff16600073ffffffffffffffffffffffffffffffffffffffff167fddf252ad1be2c89b69c2b068fc378daa952ba7f163c4a11628f55a4df523b3ef60405160405180910390a46137b26000838360016127f7565b5050565b60007f01ffc9a7000000000000000000000000000000000000000000000000000000007bffffffffffffffffffffffffffffffffffffffffffffffffffffffff1916827bffffffffffffffffffffffffffffffffffffffffffffffffffffffff1916149050919050565b600181111561394057600073ffffffffffffffffffffffffffffffffffffffff168473ffffffffffffffffffffffffffffffffffffffff16146138b45780606860008673ffffffffffffffffffffffffffffffffffffffff1673ffffffffffffffffffffffffffffffffffffffff16815260200190815260200160002060008282546138ac9190615c53565b925050819055505b600073ffffffffffffffffffffffffffffffffffffffff168373ffffffffffffffffffffffffffffffffffffffff161461393f5780606860008573ffffffffffffffffffffffffffffffffffffffff1673ffffffffffffffffffffffffffffffffffffffff1681526020019081526020016000206000828254613937919061599e565b925050819055505b5b50505050565b609980549050609a600083815260200190815260200160002081905550609981908060018154018082558091505060019003906000526020600020016000909190919091505550565b6000600161399c8461112f565b6139a69190615c53565b9050600060986000848152602001908152602001600020549050818114613a8b576000609760008673ffffffffffffffffffffffffffffffffffffffff1673ffffffffffffffffffffffffffffffffffffffff168152602001908152602001600020600084815260200190815260200160002054905080609760008773ffffffffffffffffffffffffffffffffffffffff1673ffffffffffffffffffffffffffffffffffffffff168152602001908152602001600020600084815260200190815260200160002081905550816098600083815260200190815260200160002081905550505b6098600084815260200190815260200160002060009055609760008573ffffffffffffffffffffffffffffffffffffffff1673ffffffffffffffffffffffffffffffffffffffff16815260200190815260200160002060008381526020019081526020016000206000905550505050565b60006001609980549050613b109190615c53565b90506000609a6000848152602001908152602001600020549050600060998381548110613b4057613b3f614b3e565b5b906000526020600020015490508060998381548110613b6257613b61614b3e565b5b906000526020600020018190555081609a600083815260200190815260200160002081905550609a6000858152602001908152602001600020600090556099805480613bb157613bb0615c87565b5b6001900381819060005260206000200160009055905550505050565b6000613bd88361112f565b905081609760008573ffffffffffffffffffffffffffffffffffffffff1673ffffffffffffffffffffffffffffffffffffffff168152602001908152602001600020600083815260200190815260200160002081905550806098600084815260200190815260200160002081905550505050565b60608315613c5c57829050613c67565b613c668383613dc1565b5b9392505050565b600080600090507a184f03e93ff9f4daa797ed6e38ed64bf6a1f0100000000000000008310613ccc577a184f03e93ff9f4daa797ed6e38ed64bf6a1f0100000000000000008381613cc257613cc1615b4c565b5b0492506040810190505b6d04ee2d6d415b85acef81000000008310613d09576d04ee2d6d415b85acef81000000008381613cff57613cfe615b4c565b5b0492506020810190505b662386f26fc100008310613d3857662386f26fc100008381613d2e57613d2d615b4c565b5b0492506010810190505b6305f5e1008310613d61576305f5e1008381613d5757613d56615b4c565b5b0492506008810190505b6127108310613d86576127108381613d7c57613d7b615b4c565b5b0492506004810190505b60648310613da95760648381613d9f57613d9e615b4c565b5b0492506002810190505b600a8310613db8576001810190505b80915050919050565b600082511115613dd45781518083602001fd5b806040517f08c379a0000000000000000000000000000000000000000000000000000000008152600401613e089190613fcd565b60405180910390fd5b508054613e1d9061467d565b6000825580601f10613e2f5750613e4e565b601f016020900490600052602060002090810190613e4d9190613e51565b5b50565b5b80821115613e6a576000816000905550600101613e52565b5090565b6000604051905090565b600080fd5b600080fd5b60007fffffffff0000000000000000000000000000000000000000000000000000000082169050919050565b613eb781613e82565b8114613ec257600080fd5b50565b600081359050613ed481613eae565b92915050565b600060208284031215613ef057613eef613e78565b5b6000613efe84828501613ec5565b91505092915050565b60008115159050919050565b613f1c81613f07565b82525050565b6000602082019050613f376000830184613f13565b92915050565b600081519050919050565b600082825260208201905092915050565b60005b83811015613f77578082015181840152602081019050613f5c565b60008484015250505050565b6000601f19601f8301169050919050565b6000613f9f82613f3d565b613fa98185613f48565b9350613fb9818560208601613f59565b613fc281613f83565b840191505092915050565b60006020820190508181036000830152613fe78184613f94565b905092915050565b6000819050919050565b61400281613fef565b811461400d57600080fd5b50565b60008135905061401f81613ff9565b92915050565b60006020828403121561403b5761403a613e78565b5b600061404984828501614010565b91505092915050565b600073ffffffffffffffffffffffffffffffffffffffff82169050919050565b600061407d82614052565b9050919050565b61408d81614072565b82525050565b60006020820190506140a86000830184614084565b92915050565b6140b781614072565b81146140c257600080fd5b50565b6000813590506140d4816140ae565b92915050565b600080604083850312156140f1576140f0613e78565b5b60006140ff858286016140c5565b925050602061411085828601614010565b9150509250929050565b61412381613fef565b82525050565b600060208201905061413e600083018461411a565b92915050565b60008060006060848603121561415d5761415c613e78565b5b600061416b868287016140c5565b935050602061417c868287016140c5565b925050604061418d86828701614010565b9150509250925092565b6000819050919050565b6141aa81614197565b81146141b557600080fd5b50565b6000813590506141c7816141a1565b92915050565b6000602082840312156141e3576141e2613e78565b5b60006141f1848285016141b8565b91505092915050565b61420381614197565b82525050565b600060208201905061421e60008301846141fa565b92915050565b6000806040838503121561423b5761423a613e78565b5b6000614249858286016141b8565b925050602061425a858286016140c5565b9150509250929050565b60006020828403121561427a57614279613e78565b5b6000614288848285016140c5565b91505092915050565b600080fd5b600080fd5b7f4e487b7100000000000000000000000000000000000000000000000000000000600052604160045260246000fd5b6142d382613f83565b810181811067ffffffffffffffff821117156142f2576142f161429b565b5b80604052505050565b6000614305613e6e565b905061431182826142ca565b919050565b600067ffffffffffffffff8211156143315761433061429b565b5b61433a82613f83565b9050602081019050919050565b82818337600083830152505050565b600061436961436484614316565b6142fb565b90508281526020810184848401111561438557614384614296565b5b614390848285614347565b509392505050565b600082601f8301126143ad576143ac614291565b5b81356143bd848260208601614356565b91505092915050565b600080604083850312156143dd576143dc613e78565b5b60006143eb858286016140c5565b925050602083013567ffffffffffffffff81111561440c5761440b613e7d565b5b61441885828601614398565b9150509250929050565b61442b81613f07565b811461443657600080fd5b50565b60008135905061444881614422565b92915050565b6000806040838503121561446557614464613e78565b5b6000614473858286016140c5565b925050602061448485828601614439565b9150509250929050565b600080600080608085870312156144a8576144a7613e78565b5b60006144b6878288016140c5565b94505060206144c7878288016140c5565b93505060406144d887828801614010565b925050606085013567ffffffffffffffff8111156144f9576144f8613e7d565b5b61450587828801614398565b91505092959194509250565b600067ffffffffffffffff82111561452c5761452b61429b565b5b61453582613f83565b9050602081019050919050565b600061455561455084614511565b6142fb565b90508281526020810184848401111561457157614570614296565b5b61457c848285614347565b509392505050565b600082601f83011261459957614598614291565b5b81356145a9848260208601614542565b91505092915050565b600080604083850312156145c9576145c8613e78565b5b60006145d7858286016140c5565b925050602083013567ffffffffffffffff8111156145f8576145f7613e7d565b5b61460485828601614584565b9150509250929050565b6000806040838503121561462557614624613e78565b5b6000614633858286016140c5565b9250506020614644858286016140c5565b9150509250929050565b7f4e487b7100000000000000000000000000000000000000000000000000000000600052602260045260246000fd5b6000600282049050600182168061469557607f821691505b6020821081036146a8576146a761464e565b5b50919050565b7f4552433732313a20617070726f76616c20746f2063757272656e74206f776e6560008201527f7200000000000000000000000000000000000000000000000000000000000000602082015250565b600061470a602183613f48565b9150614715826146ae565b604082019050919050565b60006020820190508181036000830152614739816146fd565b9050919050565b7f4552433732313a20617070726f76652063616c6c6572206973206e6f7420746f60008201527f6b656e206f776e6572206f7220617070726f76656420666f7220616c6c000000602082015250565b600061479c603d83613f48565b91506147a782614740565b604082019050919050565b600060208201905081810360008301526147cb8161478f565b9050919050565b7f4552433732313a2063616c6c6572206973206e6f7420746f6b656e206f776e6560008201527f72206f7220617070726f76656400000000000000000000000000000000000000602082015250565b600061482e602d83613f48565b9150614839826147d2565b604082019050919050565b6000602082019050818103600083015261485d81614821565b9050919050565b7f455243373231456e756d657261626c653a206f776e657220696e646578206f7560008201527f74206f6620626f756e6473000000000000000000000000000000000000000000602082015250565b60006148c0602b83613f48565b91506148cb82614864565b604082019050919050565b600060208201905081810360008301526148ef816148b3565b9050919050565b7f416363657373436f6e74726f6c3a2063616e206f6e6c792072656e6f756e636560008201527f20726f6c657320666f722073656c660000000000000000000000000000000000602082015250565b6000614952602f83613f48565b915061495d826148f6565b604082019050919050565b6000602082019050818103600083015261498181614945565b9050919050565b7f46756e6374696f6e206d7573742062652063616c6c6564207468726f7567682060008201527f64656c656761746563616c6c0000000000000000000000000000000000000000602082015250565b60006149e4602c83613f48565b91506149ef82614988565b604082019050919050565b60006020820190508181036000830152614a13816149d7565b9050919050565b7f46756e6374696f6e206d7573742062652063616c6c6564207468726f7567682060008201527f6163746976652070726f78790000000000000000000000000000000000000000602082015250565b6000614a76602c83613f48565b9150614a8182614a1a565b604082019050919050565b60006020820190508181036000830152614aa581614a69565b9050919050565b7f455243373231456e756d657261626c653a20676c6f62616c20696e646578206f60008201527f7574206f6620626f756e64730000000000000000000000000000000000000000602082015250565b6000614b08602c83613f48565b9150614b1382614aac565b604082019050919050565b60006020820190508181036000830152614b3781614afb565b9050919050565b7f4e487b7100000000000000000000000000000000000000000000000000000000600052603260045260246000fd5b7f555550535570677261646561626c653a206d757374206e6f742062652063616c60008201527f6c6564207468726f7567682064656c656761746563616c6c0000000000000000602082015250565b6000614bc9603883613f48565b9150614bd482614b6d565b604082019050919050565b60006020820190508181036000830152614bf881614bbc565b9050919050565b7f4552433732313a20696e76616c696420746f6b656e2049440000000000000000600082015250565b6000614c35601883613f48565b9150614c4082614bff565b602082019050919050565b60006020820190508181036000830152614c6481614c28565b9050919050565b7f4552433732313a2061646472657373207a65726f206973206e6f74206120766160008201527f6c6964206f776e65720000000000000000000000000000000000000000000000602082015250565b6000614cc7602983613f48565b9150614cd282614c6b565b604082019050919050565b60006020820190508181036000830152614cf681614cba565b9050919050565b7f496e697469616c697a61626c653a20636f6e747261637420697320616c72656160008201527f647920696e697469616c697a6564000000000000000000000000000000000000602082015250565b6000614d59602e83613f48565b9150614d6482614cfd565b604082019050919050565b60006020820190508181036000830152614d8881614d4c565b9050919050565b6000819050919050565b600060ff82169050919050565b6000819050919050565b6000614dcb614dc6614dc184614d8f565b614da6565b614d99565b9050919050565b614ddb81614db0565b82525050565b6000602082019050614df66000830184614dd2565b92915050565b7f4552433732313a207472616e736665722066726f6d20696e636f72726563742060008201527f6f776e6572000000000000000000000000000000000000000000000000000000602082015250565b6000614e58602583613f48565b9150614e6382614dfc565b604082019050919050565b60006020820190508181036000830152614e8781614e4b565b9050919050565b7f4552433732313a207472616e7366657220746f20746865207a65726f2061646460008201527f7265737300000000000000000000000000000000000000000000000000000000602082015250565b6000614eea602483613f48565b9150614ef582614e8e565b604082019050919050565b60006020820190508181036000830152614f1981614edd565b9050919050565b600081519050614f2f816141a1565b92915050565b600060208284031215614f4b57614f4a613e78565b5b6000614f5984828501614f20565b91505092915050565b7f45524331393637557067726164653a206e657720696d706c656d656e7461746960008201527f6f6e206973206e6f742055555053000000000000000000000000000000000000602082015250565b6000614fbe602e83613f48565b9150614fc982614f62565b604082019050919050565b60006020820190508181036000830152614fed81614fb1565b9050919050565b7f45524331393637557067726164653a20756e737570706f727465642070726f7860008201527f6961626c65555549440000000000000000000000000000000000000000000000602082015250565b6000615050602983613f48565b915061505b82614ff4565b604082019050919050565b6000602082019050818103600083015261507f81615043565b9050919050565b7f496e697469616c697a61626c653a20636f6e7472616374206973206e6f74206960008201527f6e697469616c697a696e67000000000000000000000000000000000000000000602082015250565b60006150e2602b83613f48565b91506150ed82615086565b604082019050919050565b60006020820190508181036000830152615111816150d5565b9050919050565b7f4552433732313a20617070726f766520746f2063616c6c657200000000000000600082015250565b600061514e601983613f48565b915061515982615118565b602082019050919050565b6000602082019050818103600083015261517d81615141565b9050919050565b7f4552433732313a207472616e7366657220746f206e6f6e20455243373231526560008201527f63656976657220696d706c656d656e7465720000000000000000000000000000602082015250565b60006151e0603283613f48565b91506151eb82615184565b604082019050919050565b6000602082019050818103600083015261520f816151d3565b9050919050565b600081905092915050565b600061522c82613f3d565b6152368185615216565b9350615246818560208601613f59565b80840191505092915050565b600061525e8285615221565b915061526a8284615221565b91508190509392505050565b7f45524337323155524953746f726167653a2055524920736574206f66206e6f6e60008201527f6578697374656e7420746f6b656e000000000000000000000000000000000000602082015250565b60006152d2602e83613f48565b91506152dd82615276565b604082019050919050565b60006020820190508181036000830152615301816152c5565b9050919050565b60008190508160005260206000209050919050565b60006020601f8301049050919050565b600082821b905092915050565b60006008830261536a7fffffffffffffffffffffffffffffffffffffffffffffffffffffffffffffffff8261532d565b615374868361532d565b95508019841693508086168417925050509392505050565b60006153a76153a261539d84613fef565b614da6565b613fef565b9050919050565b6000819050919050565b6153c18361538c565b6153d56153cd826153ae565b84845461533a565b825550505050565b600090565b6153ea6153dd565b6153f58184846153b8565b505050565b5b818110156154195761540e6000826153e2565b6001810190506153fb565b5050565b601f82111561545e5761542f81615308565b6154388461531d565b81016020851015615447578190505b61545b6154538561531d565b8301826153fa565b50505b505050565b600082821c905092915050565b600061548160001984600802615463565b1980831691505092915050565b600061549a8383615470565b9150826002028217905092915050565b6154b382613f3d565b67ffffffffffffffff8111156154cc576154cb61429b565b5b6154d6825461467d565b6154e182828561541d565b600060209050601f8311600181146155145760008415615502578287015190505b61550c858261548e565b865550615574565b601f19841661552286615308565b60005b8281101561554a57848901518255600182019150602085019450602081019050615525565b868310156155675784890151615563601f891682615470565b8355505b6001600288020188555050505b505050505050565b7f416363657373436f6e74726f6c3a206163636f756e7420000000000000000000600082015250565b60006155b2601783615216565b91506155bd8261557c565b601782019050919050565b7f206973206d697373696e6720726f6c6520000000000000000000000000000000600082015250565b60006155fe601183615216565b9150615609826155c8565b601182019050919050565b600061561f826155a5565b915061562b8285615221565b9150615636826155f1565b91506156428284615221565b91508190509392505050565b7f455243313936373a206e657720696d706c656d656e746174696f6e206973206e60008201527f6f74206120636f6e747261637400000000000000000000000000000000000000602082015250565b60006156aa602d83613f48565b91506156b58261564e565b604082019050919050565b600060208201905081810360008301526156d98161569d565b9050919050565b7f5061757361626c653a206e6f7420706175736564000000000000000000000000600082015250565b6000615716601483613f48565b9150615721826156e0565b602082019050919050565b6000602082019050818103600083015261574581615709565b9050919050565b7f5061757361626c653a2070617573656400000000000000000000000000000000600082015250565b6000615782601083613f48565b915061578d8261574c565b602082019050919050565b600060208201905081810360008301526157b181615775565b9050919050565b600081519050919050565b600082825260208201905092915050565b60006157df826157b8565b6157e981856157c3565b93506157f9818560208601613f59565b61580281613f83565b840191505092915050565b60006080820190506158226000830187614084565b61582f6020830186614084565b61583c604083018561411a565b818103606083015261584e81846157d4565b905095945050505050565b60008151905061586881613eae565b92915050565b60006020828403121561588457615883613e78565b5b600061589284828501615859565b91505092915050565b7f455243373231456e756d657261626c653a20636f6e736563757469766520747260008201527f616e7366657273206e6f7420737570706f727465640000000000000000000000602082015250565b60006158f7603583613f48565b91506159028261589b565b604082019050919050565b60006020820190508181036000830152615926816158ea565b9050919050565b7f4e487b7100000000000000000000000000000000000000000000000000000000600052601160045260246000fd5b600061596782613fef565b915061597283613fef565b925082820261598081613fef565b915082820484148315176159975761599661592d565b5b5092915050565b60006159a982613fef565b91506159b483613fef565b92508282019050808211156159cc576159cb61592d565b5b92915050565b60006159dd82613fef565b9150600082036159f0576159ef61592d565b5b600182039050919050565b7f537472696e67733a20686578206c656e67746820696e73756666696369656e74600082015250565b6000615a31602083613f48565b9150615a3c826159fb565b602082019050919050565b60006020820190508181036000830152615a6081615a24565b9050919050565b7f416464726573733a2064656c65676174652063616c6c20746f206e6f6e2d636f60008201527f6e74726163740000000000000000000000000000000000000000000000000000602082015250565b6000615ac3602683613f48565b9150615ace82615a67565b604082019050919050565b60006020820190508181036000830152615af281615ab6565b9050919050565b600081905092915050565b6000615b0f826157b8565b615b198185615af9565b9350615b29818560208601613f59565b80840191505092915050565b6000615b418284615b04565b915081905092915050565b7f4e487b7100000000000000000000000000000000000000000000000000000000600052601260045260246000fd5b7f4552433732313a206d696e7420746f20746865207a65726f2061646472657373600082015250565b6000615bb1602083613f48565b9150615bbc82615b7b565b602082019050919050565b60006020820190508181036000830152615be081615ba4565b9050919050565b7f4552433732313a20746f6b656e20616c7265616479206d696e74656400000000600082015250565b6000615c1d601c83613f48565b9150615c2882615be7565b602082019050919050565b60006020820190508181036000830152615c4c81615c10565b9050919050565b6000615c5e82613fef565b9150615c6983613fef565b9250828203905081811115615c8157615c8061592d565b5b92915050565b7f4e487b7100000000000000000000000000000000000000000000000000000000600052603160045260246000fdfe416464726573733a206c6f772d6c6576656c2064656c65676174652063616c6c206661696c6564a264697066735822122012f69827dca44f8e7586b7bb64ba55252a5f5cff2f1dcc9f27d89335c40587c964736f6c63430008110033",
  "linkReferences": {},
  "deployedLinkReferences": {}
}