{
  "_format": "hh-sol-artifact-1",
  "contractName": "ImageMarketplace",
  "sourceName": "contracts/ImageMarketplace.sol",
  "abi": [
    {
      "inputs": [],
      "stateMutability": "nonpayable",
      "type": "constructor"
    },
    {
      "anonymous": false,
      "inputs": [
        {
          "indexed": false,
          "internalType": "address",
          "name": "previousAdmin",
          "type": "address"
        },
        {
          "indexed": false,
          "internalType": "address",
          "name": "newAdmin",
          "type": "address"
        }
      ],
      "name": "AdminChanged",
      "type": "event"
    },
    {
      "anonymous": false,
      "inputs": [
        {
          "indexed": true,
          "internalType": "address",
          "name": "beacon",
          "type": "address"
        }
      ],
      "name": "BeaconUpgraded",
      "type": "event"
    },
    {
      "anonymous": false,
      "inputs": [
        {
          "indexed": true,
          "internalType": "uint256",
          "name": "marketItemId",
          "type": "uint256"
        },
        {
          "indexed": true,
          "internalType": "uint256",
          "name": "tokenId",
          "type": "uint256"
        },
        {
          "indexed": true,
          "internalType": "address",
          "name": "nftContract",
          "type": "address"
        },
        {
          "indexed": false,
          "internalType": "address",
          "name": "seller",
          "type": "address"
        },
        {
          "indexed": false,
          "internalType": "address",
          "name": "owner",
          "type": "address"
        },
        {
          "indexed": false,
          "internalType": "uint256",
          "name": "price",
          "type": "uint256"
        }
      ],
      "name": "BuyImageNFT",
      "type": "event"
    },
    {
      "anonymous": false,
      "inputs": [
        {
          "indexed": true,
          "internalType": "uint256",
          "name": "marketItemId",
          "type": "uint256"
        },
        {
          "indexed": false,
          "internalType": "address",
          "name": "nftContract",
          "type": "address"
        }
      ],
      "name": "CancelListImageNFT",
      "type": "event"
    },
    {
      "anonymous": false,
      "inputs": [
        {
          "indexed": false,
          "internalType": "uint8",
          "name": "version",
          "type": "uint8"
        }
      ],
      "name": "Initialized",
      "type": "event"
    },
    {
      "anonymous": false,
      "inputs": [
        {
          "indexed": true,
          "internalType": "uint256",
          "name": "marketItemId",
          "type": "uint256"
        },
        {
          "indexed": true,
          "internalType": "uint256",
          "name": "tokenId",
          "type": "uint256"
        },
        {
          "indexed": true,
          "internalType": "address",
          "name": "nftContract",
          "type": "address"
        },
        {
          "indexed": false,
          "internalType": "uint256",
          "name": "price",
          "type": "uint256"
        },
        {
          "indexed": false,
          "internalType": "address",
          "name": "seller",
          "type": "address"
        },
        {
          "indexed": false,
          "internalType": "address",
          "name": "owner",
          "type": "address"
        }
      ],
      "name": "ListImageNFT",
      "type": "event"
    },
    {
      "anonymous": false,
      "inputs": [
        {
          "indexed": true,
          "internalType": "address",
          "name": "previousOwner",
          "type": "address"
        },
        {
          "indexed": true,
          "internalType": "address",
          "name": "newOwner",
          "type": "address"
        }
      ],
      "name": "OwnershipTransferred",
      "type": "event"
    },
    {
      "anonymous": false,
      "inputs": [
        {
          "indexed": true,
          "internalType": "address",
          "name": "implementation",
          "type": "address"
        }
      ],
      "name": "Upgraded",
      "type": "event"
    },
    {
      "inputs": [],
      "name": "_itemsCancelled",
      "outputs": [
        {
          "internalType": "uint256",
          "name": "_value",
          "type": "uint256"
        }
      ],
      "stateMutability": "view",
      "type": "function"
    },
    {
      "inputs": [],
      "name": "_itemsSold",
      "outputs": [
        {
          "internalType": "uint256",
          "name": "_value",
          "type": "uint256"
        }
      ],
      "stateMutability": "view",
      "type": "function"
    },
    {
      "inputs": [
        {
          "internalType": "uint256",
          "name": "marketItemId",
          "type": "uint256"
        }
      ],
      "name": "buyImageNFT",
      "outputs": [],
      "stateMutability": "payable",
      "type": "function"
    },
    {
      "inputs": [
        {
          "internalType": "uint256",
          "name": "marketItemId",
          "type": "uint256"
        }
      ],
      "name": "cancelListImageNFT",
      "outputs": [],
      "stateMutability": "nonpayable",
      "type": "function"
    },
    {
      "inputs": [],
      "name": "getListingFee",
      "outputs": [
        {
          "internalType": "uint256",
          "name": "",
          "type": "uint256"
        }
      ],
      "stateMutability": "view",
      "type": "function"
    },
    {
      "inputs": [],
      "name": "initialize",
      "outputs": [],
      "stateMutability": "nonpayable",
      "type": "function"
    },
    {
      "inputs": [
        {
          "internalType": "address",
          "name": "_nftContract",
          "type": "address"
        },
        {
          "internalType": "uint256",
          "name": "_tokenId",
          "type": "uint256"
        },
        {
          "internalType": "uint256",
          "name": "_price",
          "type": "uint256"
        }
      ],
      "name": "listImageNFT",
      "outputs": [
        {
          "internalType": "uint256",
          "name": "",
          "type": "uint256"
        }
      ],
      "stateMutability": "nonpayable",
      "type": "function"
    },
    {
      "inputs": [],
      "name": "nft",
      "outputs": [
        {
          "internalType": "contract IERC721Upgradeable",
          "name": "",
          "type": "address"
        }
      ],
      "stateMutability": "view",
      "type": "function"
    },
    {
      "inputs": [],
      "name": "nftContract",
      "outputs": [
        {
          "internalType": "address",
          "name": "",
          "type": "address"
        }
      ],
      "stateMutability": "view",
      "type": "function"
    },
    {
      "inputs": [],
      "name": "owner",
      "outputs": [
        {
          "internalType": "address",
          "name": "",
          "type": "address"
        }
      ],
      "stateMutability": "view",
      "type": "function"
    },
    {
      "inputs": [],
      "name": "proxiableUUID",
      "outputs": [
        {
          "internalType": "bytes32",
          "name": "",
          "type": "bytes32"
        }
      ],
      "stateMutability": "view",
      "type": "function"
    },
    {
      "inputs": [],
      "name": "renounceOwnership",
      "outputs": [],
      "stateMutability": "nonpayable",
      "type": "function"
    },
    {
      "inputs": [
        {
          "internalType": "address",
          "name": "_nftContract",
          "type": "address"
        }
      ],
      "name": "setNftContract",
      "outputs": [],
      "stateMutability": "nonpayable",
      "type": "function"
    },
    {
      "inputs": [
        {
          "internalType": "address",
          "name": "newOwner",
          "type": "address"
        }
      ],
      "name": "transferOwnership",
      "outputs": [],
      "stateMutability": "nonpayable",
      "type": "function"
    },
    {
      "inputs": [
        {
          "internalType": "address",
          "name": "newImplementation",
          "type": "address"
        }
      ],
      "name": "upgradeTo",
      "outputs": [],
      "stateMutability": "nonpayable",
      "type": "function"
    },
    {
      "inputs": [
        {
          "internalType": "address",
          "name": "newImplementation",
          "type": "address"
        },
        {
          "internalType": "bytes",
          "name": "data",
          "type": "bytes"
        }
      ],
      "name": "upgradeToAndCall",
      "outputs": [],
      "stateMutability": "payable",
      "type": "function"
    },
    {
      "inputs": [
        {
          "internalType": "address",
          "name": "",
          "type": "address"
        }
      ],
      "name": "whitelistNFT",
      "outputs": [
        {
          "internalType": "bool",
          "name": "",
          "type": "bool"
        }
      ],
      "stateMutability": "view",
      "type": "function"
    }
  ],
  "bytecode": "0x60a06040523073ffffffffffffffffffffffffffffffffffffffff1660809073ffffffffffffffffffffffffffffffffffffffff168152503480156200004457600080fd5b50620000556200005b60201b60201c565b62000206565b600060019054906101000a900460ff1615620000ae576040517f08c379a0000000000000000000000000000000000000000000000000000000008152600401620000a590620001a9565b60405180910390fd5b60ff801660008054906101000a900460ff1660ff161015620001205760ff6000806101000a81548160ff021916908360ff1602179055507f7f26b83ff96e1f2b6a682f133852f6798a09c465da95921460cefb384740249860ff604051620001179190620001e9565b60405180910390a15b565b600082825260208201905092915050565b7f496e697469616c697a61626c653a20636f6e747261637420697320696e69746960008201527f616c697a696e6700000000000000000000000000000000000000000000000000602082015250565b60006200019160278362000122565b91506200019e8262000133565b604082019050919050565b60006020820190508181036000830152620001c48162000182565b9050919050565b600060ff82169050919050565b620001e381620001cb565b82525050565b6000602082019050620002006000830184620001d8565b92915050565b608051612f636200023e600039600081816103b60152818161044401528181610565015281816105f301526106a30152612f636000f3fe6080604052600436106100fe5760003560e01c806387506a0d11610095578063bec98be411610064578063bec98be4146102cf578063d56d229d146102f8578063e86d43ee14610323578063f2fde38b14610360578063f49e3c6914610389576100fe565b806387506a0d146102115780638da5cb5b1461023c578063b8fe6abe14610267578063bcdbfe6814610292576100fe565b806352f5ad77116100d157806352f5ad771461019e5780635521a8f5146101c7578063715018a6146101e35780638129fc1c146101fa576100fe565b80633659cfe61461010357806347ccca021461012c5780634f1ef2861461015757806352d1902d14610173575b600080fd5b34801561010f57600080fd5b5061012a60048036038101906101259190611e19565b6103b4565b005b34801561013857600080fd5b5061014161053c565b60405161014e9190611ea5565b60405180910390f35b610171600480360381019061016c9190612006565b610563565b005b34801561017f57600080fd5b5061018861069f565b604051610195919061207b565b60405180910390f35b3480156101aa57600080fd5b506101c560048036038101906101c09190611e19565b610758565b005b6101e160048036038101906101dc91906120cc565b610855565b005b3480156101ef57600080fd5b506101f8610bee565b005b34801561020657600080fd5b5061020f610c02565b005b34801561021d57600080fd5b50610226610d57565b6040516102339190612108565b60405180910390f35b34801561024857600080fd5b50610251610d63565b60405161025e9190612132565b60405180910390f35b34801561027357600080fd5b5061027c610d8d565b6040516102899190612108565b60405180910390f35b34801561029e57600080fd5b506102b960048036038101906102b49190611e19565b610d98565b6040516102c69190612168565b60405180910390f35b3480156102db57600080fd5b506102f660048036038101906102f191906120cc565b610db8565b005b34801561030457600080fd5b5061030d61106b565b60405161031a9190612132565b60405180910390f35b34801561032f57600080fd5b5061034a60048036038101906103459190612183565b611091565b6040516103579190612108565b60405180910390f35b34801561036c57600080fd5b5061038760048036038101906103829190611e19565b61155a565b005b34801561039557600080fd5b5061039e6115dd565b6040516103ab9190612108565b60405180910390f35b7f000000000000000000000000000000000000000000000000000000000000000073ffffffffffffffffffffffffffffffffffffffff163073ffffffffffffffffffffffffffffffffffffffff1603610442576040517f08c379a000000000000000000000000000000000000000000000000000000000815260040161043990612259565b60405180910390fd5b7f000000000000000000000000000000000000000000000000000000000000000073ffffffffffffffffffffffffffffffffffffffff166104816115e9565b73ffffffffffffffffffffffffffffffffffffffff16146104d7576040517f08c379a00000000000000000000000000000000000000000000000000000000081526004016104ce906122eb565b60405180910390fd5b6104e081611640565b61053981600067ffffffffffffffff8111156104ff576104fe611edb565b5b6040519080825280601f01601f1916602001820160405280156105315781602001600182028036833780820191505090505b506000611643565b50565b61010060009054906101000a900473ffffffffffffffffffffffffffffffffffffffff1681565b7f000000000000000000000000000000000000000000000000000000000000000073ffffffffffffffffffffffffffffffffffffffff163073ffffffffffffffffffffffffffffffffffffffff16036105f1576040517f08c379a00000000000000000000000000000000000000000000000000000000081526004016105e890612259565b60405180910390fd5b7f000000000000000000000000000000000000000000000000000000000000000073ffffffffffffffffffffffffffffffffffffffff166106306115e9565b73ffffffffffffffffffffffffffffffffffffffff1614610686576040517f08c379a000000000000000000000000000000000000000000000000000000000815260040161067d906122eb565b60405180910390fd5b61068f82611640565b61069b82826001611643565b5050565b60007f000000000000000000000000000000000000000000000000000000000000000073ffffffffffffffffffffffffffffffffffffffff163073ffffffffffffffffffffffffffffffffffffffff161461072f576040517f08c379a00000000000000000000000000000000000000000000000000000000081526004016107269061237d565b60405180910390fd5b7f360894a13ba1a3210667c828492db98dca3e2076cc3735a920a3ca505d382bbc60001b905090565b6107606117b1565b600073ffffffffffffffffffffffffffffffffffffffff168173ffffffffffffffffffffffffffffffffffffffff16036107cf576040517f08c379a00000000000000000000000000000000000000000000000000000000081526004016107c6906123e9565b60405180910390fd5b8060ff60006101000a81548173ffffffffffffffffffffffffffffffffffffffff021916908373ffffffffffffffffffffffffffffffffffffffff1602179055508061010060006101000a81548173ffffffffffffffffffffffffffffffffffffffff021916908373ffffffffffffffffffffffffffffffffffffffff16021790555050565b61085d61182f565b6000610103600083815260200190815260200160002090503373ffffffffffffffffffffffffffffffffffffffff168160030160009054906101000a900473ffffffffffffffffffffffffffffffffffffffff1673ffffffffffffffffffffffffffffffffffffffff1603610907576040517f08c379a00000000000000000000000000000000000000000000000000000000081526004016108fe90612455565b60405180910390fd5b61010060009054906101000a900473ffffffffffffffffffffffffffffffffffffffff1673ffffffffffffffffffffffffffffffffffffffff166323b872dd303384600101546040518463ffffffff1660e01b815260040161096b93929190612475565b600060405180830381600087803b15801561098557600080fd5b505af1158015610999573d6000803e3d6000fd5b50505050338160040160006101000a81548173ffffffffffffffffffffffffffffffffffffffff021916908373ffffffffffffffffffffffffffffffffffffffff16021790555047341115610a23576040517f08c379a0000000000000000000000000000000000000000000000000000000008152600401610a1a90612544565b60405180910390fd5b8060030160009054906101000a900473ffffffffffffffffffffffffffffffffffffffff1673ffffffffffffffffffffffffffffffffffffffff166108fc349081150290604051600060405180830381858888f19350505050158015610a8d573d6000803e3d6000fd5b5060ff60009054906101000a900473ffffffffffffffffffffffffffffffffffffffff1673ffffffffffffffffffffffffffffffffffffffff16816001015482600001547f4d53728cfa3cbab50a7f8b0fe592c196dbcddeaaf265a6f91fe6998cf30ffe688460030160009054906101000a900473ffffffffffffffffffffffffffffffffffffffff16338660050154604051610b2c93929190612475565b60405180910390a4610b3e60fc61187e565b610103600083815260200190815260200160002060008082016000905560018201600090556002820160006101000a81549073ffffffffffffffffffffffffffffffffffffffff02191690556003820160006101000a81549073ffffffffffffffffffffffffffffffffffffffff02191690556004820160006101000a81549073ffffffffffffffffffffffffffffffffffffffff02191690556005820160009055505050610beb611894565b50565b610bf66117b1565b610c00600061189e565b565b60008060019054906101000a900460ff16159050808015610c335750600160008054906101000a900460ff1660ff16105b80610c605750610c4230611964565b158015610c5f5750600160008054906101000a900460ff1660ff16145b5b610c9f576040517f08c379a0000000000000000000000000000000000000000000000000000000008152600401610c96906125d6565b60405180910390fd5b60016000806101000a81548160ff021916908360ff1602179055508015610cdc576001600060016101000a81548160ff0219169083151502179055505b610ce4611987565b610cec6119e0565b669fdf42f6e48000610101819055508015610d545760008060016101000a81548160ff0219169083151502179055507f7f26b83ff96e1f2b6a682f133852f6798a09c465da95921460cefb38474024986001604051610d4b919061263e565b60405180910390a15b50565b60fc8060000154905081565b6000603360009054906101000a900473ffffffffffffffffffffffffffffffffffffffff16905090565b600061010154905090565b60fe6020528060005260406000206000915054906101000a900460ff1681565b3373ffffffffffffffffffffffffffffffffffffffff16610103600083815260200190815260200160002060030160009054906101000a900473ffffffffffffffffffffffffffffffffffffffff1673ffffffffffffffffffffffffffffffffffffffff1614610e5d576040517f08c379a0000000000000000000000000000000000000000000000000000000008152600401610e54906126a5565b60405180910390fd5b600061010360008381526020019081526020016000206005015411610eb7576040517f08c379a0000000000000000000000000000000000000000000000000000000008152600401610eae90612711565b60405180910390fd5b61010060009054906101000a900473ffffffffffffffffffffffffffffffffffffffff1673ffffffffffffffffffffffffffffffffffffffff166323b872dd30336101036000868152602001908152602001600020600101546040518463ffffffff1660e01b8152600401610f2e93929190612475565b600060405180830381600087803b158015610f4857600080fd5b505af1158015610f5c573d6000803e3d6000fd5b50505050610103600082815260200190815260200160002060008082016000905560018201600090556002820160006101000a81549073ffffffffffffffffffffffffffffffffffffffff02191690556003820160006101000a81549073ffffffffffffffffffffffffffffffffffffffff02191690556004820160006101000a81549073ffffffffffffffffffffffffffffffffffffffff021916905560058201600090555050807f46ec63ef688239f20059301eea7e7b76f5bdf10b1d6e5a97e40a02787c55987e60ff60009054906101000a900473ffffffffffffffffffffffffffffffffffffffff166040516110569190612132565b60405180910390a261106860fd61187e565b50565b60ff60009054906101000a900473ffffffffffffffffffffffffffffffffffffffff1681565b600061109b61182f565b600082116110de576040517f08c379a00000000000000000000000000000000000000000000000000000000081526004016110d59061277d565b60405180910390fd5b3373ffffffffffffffffffffffffffffffffffffffff1661010060009054906101000a900473ffffffffffffffffffffffffffffffffffffffff1673ffffffffffffffffffffffffffffffffffffffff16636352211e856040518263ffffffff1660e01b81526004016111519190612108565b602060405180830381865afa15801561116e573d6000803e3d6000fd5b505050506040513d601f19601f8201168201806040525081019061119291906127b2565b73ffffffffffffffffffffffffffffffffffffffff16146111e8576040517f08c379a00000000000000000000000000000000000000000000000000000000081526004016111df9061282b565b60405180910390fd5b60006101036000858152602001908152602001600020600501541115611243576040517f08c379a000000000000000000000000000000000000000000000000000000000815260040161123a90612897565b60405180910390fd5b60fe60003373ffffffffffffffffffffffffffffffffffffffff1673ffffffffffffffffffffffffffffffffffffffff16815260200190815260200160002060009054906101000a900460ff16156112d0576040517f08c379a00000000000000000000000000000000000000000000000000000000081526004016112c790612903565b60405180910390fd5b6112da60fb61187e565b60006112e660fb611a39565b90506040518060c001604052808281526020018581526020018673ffffffffffffffffffffffffffffffffffffffff1681526020013373ffffffffffffffffffffffffffffffffffffffff1681526020013073ffffffffffffffffffffffffffffffffffffffff168152602001848152506101036000838152602001908152602001600020600082015181600001556020820151816001015560408201518160020160006101000a81548173ffffffffffffffffffffffffffffffffffffffff021916908373ffffffffffffffffffffffffffffffffffffffff16021790555060608201518160030160006101000a81548173ffffffffffffffffffffffffffffffffffffffff021916908373ffffffffffffffffffffffffffffffffffffffff16021790555060808201518160040160006101000a81548173ffffffffffffffffffffffffffffffffffffffff021916908373ffffffffffffffffffffffffffffffffffffffff16021790555060a0820151816005015590505061010060009054906101000a900473ffffffffffffffffffffffffffffffffffffffff1673ffffffffffffffffffffffffffffffffffffffff166323b872dd3330876040518463ffffffff1660e01b81526004016114c193929190612475565b600060405180830381600087803b1580156114db57600080fd5b505af11580156114ef573d6000803e3d6000fd5b505050508473ffffffffffffffffffffffffffffffffffffffff1684827f15b37799ba662a6dfc88818e7976ca1cd8dd4e695de2e1074d7eda65152556d886333060405161153f93929190612944565b60405180910390a480915050611553611894565b9392505050565b6115626117b1565b600073ffffffffffffffffffffffffffffffffffffffff168173ffffffffffffffffffffffffffffffffffffffff16036115d1576040517f08c379a00000000000000000000000000000000000000000000000000000000081526004016115c8906129ed565b60405180910390fd5b6115da8161189e565b50565b60fd8060000154905081565b60006116177f360894a13ba1a3210667c828492db98dca3e2076cc3735a920a3ca505d382bbc60001b611a47565b60000160009054906101000a900473ffffffffffffffffffffffffffffffffffffffff16905090565b50565b61166f7f4910fdfa16fed3260ed0e7147f7cc6da11a60208b5b9406d12a635614ffd914360001b611a51565b60000160009054906101000a900460ff16156116935761168e83611a5b565b6117ac565b8273ffffffffffffffffffffffffffffffffffffffff166352d1902d6040518163ffffffff1660e01b8152600401602060405180830381865afa9250505080156116fb57506040513d601f19601f820116820180604052508101906116f89190612a39565b60015b61173a576040517f08c379a000000000000000000000000000000000000000000000000000000000815260040161173190612ad8565b60405180910390fd5b7f360894a13ba1a3210667c828492db98dca3e2076cc3735a920a3ca505d382bbc60001b811461179f576040517f08c379a000000000000000000000000000000000000000000000000000000000815260040161179690612b6a565b60405180910390fd5b506117ab838383611b14565b5b505050565b6117b9611b40565b73ffffffffffffffffffffffffffffffffffffffff166117d7610d63565b73ffffffffffffffffffffffffffffffffffffffff161461182d576040517f08c379a000000000000000000000000000000000000000000000000000000000815260040161182490612bd6565b60405180910390fd5b565b600260655403611874576040517f08c379a000000000000000000000000000000000000000000000000000000000815260040161186b90612c42565b60405180910390fd5b6002606581905550565b6001816000016000828254019250508190555050565b6001606581905550565b6000603360009054906101000a900473ffffffffffffffffffffffffffffffffffffffff16905081603360006101000a81548173ffffffffffffffffffffffffffffffffffffffff021916908373ffffffffffffffffffffffffffffffffffffffff1602179055508173ffffffffffffffffffffffffffffffffffffffff168173ffffffffffffffffffffffffffffffffffffffff167f8be0079c531659141344cd1fd0a4f28419497f9722a3daafe3b4186f6b6457e060405160405180910390a35050565b6000808273ffffffffffffffffffffffffffffffffffffffff163b119050919050565b600060019054906101000a900460ff166119d6576040517f08c379a00000000000000000000000000000000000000000000000000000000081526004016119cd90612cd4565b60405180910390fd5b6119de611b48565b565b600060019054906101000a900460ff16611a2f576040517f08c379a0000000000000000000000000000000000000000000000000000000008152600401611a2690612cd4565b60405180910390fd5b611a37611ba9565b565b600081600001549050919050565b6000819050919050565b6000819050919050565b611a6481611964565b611aa3576040517f08c379a0000000000000000000000000000000000000000000000000000000008152600401611a9a90612d66565b60405180910390fd5b80611ad07f360894a13ba1a3210667c828492db98dca3e2076cc3735a920a3ca505d382bbc60001b611a47565b60000160006101000a81548173ffffffffffffffffffffffffffffffffffffffff021916908373ffffffffffffffffffffffffffffffffffffffff16021790555050565b611b1d83611c02565b600082511180611b2a5750805b15611b3b57611b398383611c51565b505b505050565b600033905090565b600060019054906101000a900460ff16611b97576040517f08c379a0000000000000000000000000000000000000000000000000000000008152600401611b8e90612cd4565b60405180910390fd5b611ba7611ba2611b40565b61189e565b565b600060019054906101000a900460ff16611bf8576040517f08c379a0000000000000000000000000000000000000000000000000000000008152600401611bef90612cd4565b60405180910390fd5b6001606581905550565b611c0b81611a5b565b8073ffffffffffffffffffffffffffffffffffffffff167fbc7cd75a20ee27fd9adebab32041f755214dbc6bffa90cc0225b39da2e5c2d3b60405160405180910390a250565b6060611c5c83611964565b611c9b576040517f08c379a0000000000000000000000000000000000000000000000000000000008152600401611c9290612df8565b60405180910390fd5b6000808473ffffffffffffffffffffffffffffffffffffffff1684604051611cc39190612e89565b600060405180830381855af49150503d8060008114611cfe576040519150601f19603f3d011682016040523d82523d6000602084013e611d03565b606091505b5091509150611d2b8282604051806060016040528060278152602001612f0760279139611d35565b9250505092915050565b60608315611d4557829050611d50565b611d4f8383611d57565b5b9392505050565b600082511115611d6a5781518083602001fd5b806040517f08c379a0000000000000000000000000000000000000000000000000000000008152600401611d9e9190612ee4565b60405180910390fd5b6000604051905090565b600080fd5b600080fd5b600073ffffffffffffffffffffffffffffffffffffffff82169050919050565b6000611de682611dbb565b9050919050565b611df681611ddb565b8114611e0157600080fd5b50565b600081359050611e1381611ded565b92915050565b600060208284031215611e2f57611e2e611db1565b5b6000611e3d84828501611e04565b91505092915050565b6000819050919050565b6000611e6b611e66611e6184611dbb565b611e46565b611dbb565b9050919050565b6000611e7d82611e50565b9050919050565b6000611e8f82611e72565b9050919050565b611e9f81611e84565b82525050565b6000602082019050611eba6000830184611e96565b92915050565b600080fd5b600080fd5b6000601f19601f8301169050919050565b7f4e487b7100000000000000000000000000000000000000000000000000000000600052604160045260246000fd5b611f1382611eca565b810181811067ffffffffffffffff82111715611f3257611f31611edb565b5b80604052505050565b6000611f45611da7565b9050611f518282611f0a565b919050565b600067ffffffffffffffff821115611f7157611f70611edb565b5b611f7a82611eca565b9050602081019050919050565b82818337600083830152505050565b6000611fa9611fa484611f56565b611f3b565b905082815260208101848484011115611fc557611fc4611ec5565b5b611fd0848285611f87565b509392505050565b600082601f830112611fed57611fec611ec0565b5b8135611ffd848260208601611f96565b91505092915050565b6000806040838503121561201d5761201c611db1565b5b600061202b85828601611e04565b925050602083013567ffffffffffffffff81111561204c5761204b611db6565b5b61205885828601611fd8565b9150509250929050565b6000819050919050565b61207581612062565b82525050565b6000602082019050612090600083018461206c565b92915050565b6000819050919050565b6120a981612096565b81146120b457600080fd5b50565b6000813590506120c6816120a0565b92915050565b6000602082840312156120e2576120e1611db1565b5b60006120f0848285016120b7565b91505092915050565b61210281612096565b82525050565b600060208201905061211d60008301846120f9565b92915050565b61212c81611ddb565b82525050565b60006020820190506121476000830184612123565b92915050565b60008115159050919050565b6121628161214d565b82525050565b600060208201905061217d6000830184612159565b92915050565b60008060006060848603121561219c5761219b611db1565b5b60006121aa86828701611e04565b93505060206121bb868287016120b7565b92505060406121cc868287016120b7565b9150509250925092565b600082825260208201905092915050565b7f46756e6374696f6e206d7573742062652063616c6c6564207468726f7567682060008201527f64656c656761746563616c6c0000000000000000000000000000000000000000602082015250565b6000612243602c836121d6565b915061224e826121e7565b604082019050919050565b6000602082019050818103600083015261227281612236565b9050919050565b7f46756e6374696f6e206d7573742062652063616c6c6564207468726f7567682060008201527f6163746976652070726f78790000000000000000000000000000000000000000602082015250565b60006122d5602c836121d6565b91506122e082612279565b604082019050919050565b60006020820190508181036000830152612304816122c8565b9050919050565b7f555550535570677261646561626c653a206d757374206e6f742062652063616c60008201527f6c6564207468726f7567682064656c656761746563616c6c0000000000000000602082015250565b60006123676038836121d6565b91506123728261230b565b604082019050919050565b600060208201905081810360008301526123968161235a565b9050919050565b7f496e76616c6964206e667420636f6e7472616374206164647265737300000000600082015250565b60006123d3601c836121d6565b91506123de8261239d565b602082019050919050565b60006020820190508181036000830152612402816123c6565b9050919050565b7f42757965722063616e6e6f742062652073656c6c657200000000000000000000600082015250565b600061243f6016836121d6565b915061244a82612409565b602082019050919050565b6000602082019050818103600083015261246e81612432565b9050919050565b600060608201905061248a6000830186612123565b6124976020830185612123565b6124a460408301846120f9565b949350505050565b7f436f6e74726163742062616c616e6365206d757374206265206772656174652060008201527f7468616e206f7220657175616c20746f204d73672076616c7565206d65616e7360208201527f2070726963650000000000000000000000000000000000000000000000000000604082015250565b600061252e6046836121d6565b9150612539826124ac565b606082019050919050565b6000602082019050818103600083015261255d81612521565b9050919050565b7f496e697469616c697a61626c653a20636f6e747261637420697320616c72656160008201527f647920696e697469616c697a6564000000000000000000000000000000000000602082015250565b60006125c0602e836121d6565b91506125cb82612564565b604082019050919050565b600060208201905081810360008301526125ef816125b3565b9050919050565b6000819050919050565b600060ff82169050919050565b600061262861262361261e846125f6565b611e46565b612600565b9050919050565b6126388161260d565b82525050565b6000602082019050612653600083018461262f565b92915050565b7f596f7520646f206e6f74206f776e2074686973204e4654000000000000000000600082015250565b600061268f6017836121d6565b915061269a82612659565b602082019050919050565b600060208201905081810360008301526126be81612682565b9050919050565b7f496e76616c6964204e4654000000000000000000000000000000000000000000600082015250565b60006126fb600b836121d6565b9150612706826126c5565b602082019050919050565b6000602082019050818103600083015261272a816126ee565b9050919050565b7f5072696365206d757374206265206174206c6561737420312077656900000000600082015250565b6000612767601c836121d6565b915061277282612731565b602082019050919050565b600060208201905081810360008301526127968161275a565b9050919050565b6000815190506127ac81611ded565b92915050565b6000602082840312156127c8576127c7611db1565b5b60006127d68482850161279d565b91505092915050565b7f596f7520646f206e6f74206f776e207468697320746f6b656e00000000000000600082015250565b60006128156019836121d6565b9150612820826127df565b602082019050919050565b6000602082019050818103600083015261284481612808565b9050919050565b7f54686973204e46542068617320616c7265616479206265656e206c6973746564600082015250565b60006128816020836121d6565b915061288c8261284b565b602082019050919050565b600060208201905081810360008301526128b081612874565b9050919050565b7f496e76616c6964204e465420636f6e7472616374206164647265737300000000600082015250565b60006128ed601c836121d6565b91506128f8826128b7565b602082019050919050565b6000602082019050818103600083015261291c816128e0565b9050919050565b600061292e82611e72565b9050919050565b61293e81612923565b82525050565b600060608201905061295960008301866120f9565b6129666020830185612935565b6129736040830184612935565b949350505050565b7f4f776e61626c653a206e6577206f776e657220697320746865207a65726f206160008201527f6464726573730000000000000000000000000000000000000000000000000000602082015250565b60006129d76026836121d6565b91506129e28261297b565b604082019050919050565b60006020820190508181036000830152612a06816129ca565b9050919050565b612a1681612062565b8114612a2157600080fd5b50565b600081519050612a3381612a0d565b92915050565b600060208284031215612a4f57612a4e611db1565b5b6000612a5d84828501612a24565b91505092915050565b7f45524331393637557067726164653a206e657720696d706c656d656e7461746960008201527f6f6e206973206e6f742055555053000000000000000000000000000000000000602082015250565b6000612ac2602e836121d6565b9150612acd82612a66565b604082019050919050565b60006020820190508181036000830152612af181612ab5565b9050919050565b7f45524331393637557067726164653a20756e737570706f727465642070726f7860008201527f6961626c65555549440000000000000000000000000000000000000000000000602082015250565b6000612b546029836121d6565b9150612b5f82612af8565b604082019050919050565b60006020820190508181036000830152612b8381612b47565b9050919050565b7f4f776e61626c653a2063616c6c6572206973206e6f7420746865206f776e6572600082015250565b6000612bc06020836121d6565b9150612bcb82612b8a565b602082019050919050565b60006020820190508181036000830152612bef81612bb3565b9050919050565b7f5265656e7472616e637947756172643a207265656e7472616e742063616c6c00600082015250565b6000612c2c601f836121d6565b9150612c3782612bf6565b602082019050919050565b60006020820190508181036000830152612c5b81612c1f565b9050919050565b7f496e697469616c697a61626c653a20636f6e7472616374206973206e6f74206960008201527f6e697469616c697a696e67000000000000000000000000000000000000000000602082015250565b6000612cbe602b836121d6565b9150612cc982612c62565b604082019050919050565b60006020820190508181036000830152612ced81612cb1565b9050919050565b7f455243313936373a206e657720696d706c656d656e746174696f6e206973206e60008201527f6f74206120636f6e747261637400000000000000000000000000000000000000602082015250565b6000612d50602d836121d6565b9150612d5b82612cf4565b604082019050919050565b60006020820190508181036000830152612d7f81612d43565b9050919050565b7f416464726573733a2064656c65676174652063616c6c20746f206e6f6e2d636f60008201527f6e74726163740000000000000000000000000000000000000000000000000000602082015250565b6000612de26026836121d6565b9150612ded82612d86565b604082019050919050565b60006020820190508181036000830152612e1181612dd5565b9050919050565b600081519050919050565b600081905092915050565b60005b83811015612e4c578082015181840152602081019050612e31565b60008484015250505050565b6000612e6382612e18565b612e6d8185612e23565b9350612e7d818560208601612e2e565b80840191505092915050565b6000612e958284612e58565b915081905092915050565b600081519050919050565b6000612eb682612ea0565b612ec081856121d6565b9350612ed0818560208601612e2e565b612ed981611eca565b840191505092915050565b60006020820190508181036000830152612efe8184612eab565b90509291505056fe416464726573733a206c6f772d6c6576656c2064656c65676174652063616c6c206661696c6564a2646970667358221220df286da4ab1ed2a726533cf618d62ffb62924c4abc3ec33db0f128ac6f9ddb1164736f6c63430008110033",
  "linkReferences": {},
  "deployedLinkReferences": {}
}